:100000000C94940A0C94F51A0C94091B0C94C40AD1
:100010000C9400000C94660B0C9400000C940000EF
:100020000C9400000C944D0B0C9400000C944C0BA1
:100030000C9400000C9400000C9400000C94000040
:100040000C9400000C9400000C9400000C94000030
:100050000C940000CFEEECE5F9E5EDE8E5200000BA
:1000600000000000D0C5C6C8CC2000000000000081
:1000700000000000D1C5C7CECD2000000000000068
:1000800000000000D3F1F22E20000000000000006C
:1000900000000000CFE0F0E0ECE5F2F0FB20000013
:1000A00000000000C0C2C0D0C8C92000000000008D
:1000B00000000000CDC0D1D2D0CEC9CAC02E2E2E95
:1000C00000000000D3F1F22ED7E0F12E2000000056
:1000D00000000000D3F1F220CCE8ED200000000089
:1000E00000000000D3F1F22EE4E5EDFC2E2000002C
:1000F00000000000D3F1F220CCE5F12E200000003A
:1001000000000000D3F1F220C3CEC42E2000000076
:1001100000000000CFCECCC5D92E2000000000008A
:1001200000000000D3CB2ED2200000000000000011
:1001300000000000D3F1F22ED220000000000000E9
:1001400000000000C2EEE420C2D52E200000000016
:1001500000000000C2EEE420C2DBD52E000000004B
:1001600000000000CAD0C0CD200000000000000048
:1001700000000000D3D1D22ECAD0C0CD2E20000066
:1001800000000000C2C5CDD2C8CBDFD2CED0200047
:1001900000000000D3F1F22E20C2C5CDD22E2000E7
:1001A00000000000C7C0D1CB2E20000000000000DE
:1001B00000000000CDC0D1CED12000000000000022
:1001C00000000000544120494E204D696E2000007F
:1001D0000000000054572053544F502000000000EE
:1001E000000000005457204D696E20000000000000
:1001F000000000005441204D696E20000000000006
:1002000000000000CFD0CEC3D0C5C2200000000047
:1002100000000000C2D02EC8CDD22E200000000069
:1002200000000000CAD33D000000000000000000F4
:1002300000000000CAC83D000000000000000000EF
:1002400000000000CAC43D000000000000000000E3
:1002500000000000D1EC2ECF2E3D00000000000079
:1002600000000000D8EA2ECF2E3D00000000000064
:1002700000000000D1EC2ED3EB2E3D00000000006A
:1002800000000000D8EA2ED3EB2E3D000000000055
:1002900000000000D1EC2EC2C2F53D0000000000BD
:1002A00000000000D8EA2EC2C2F53D0000000000A8
:1002B00000000000D1EC2EC2C2FBF53D00000000A2
:1002C00000000000D8EA2EC2C2FBF53D000000008D
:1002D00000000000D1E5E7EEED3D00000000000069
:1002E00000000000CFE0F0EEEBFC3D00000000005D
:1002F00000000000D2E5F0ECEEE7E0F9E8F2E020E3
:1003000000000000C7E0ECE5F0E7E0EDE8E52000E4
:1003100000000000D2E5ECEF2EE2EEE7E42EE2F57D
:1003200020000000D22EE2EEE7E42EE2FBF52E20C4
:1003300000000000D2E5ECEF2EE2EEE4FB20E2F557
:1003400020000000D22EE2EEE4FB20E2FBF52E00BE
:1003500000000000CDE5F220F1E2FFE7E820000018
:1003600000000000CDE5F220F2E5F0EC2E42312055
:1003700000000000CDE5F220F2E5F0EC2E42322044
:1003800000000000CDE5F220F2E5F0EC2E42332033
:1003900000000000CDE5F220F2E5F0EC2E42342022
:1003A00000000000D4E8EBFCF2F0200000000000A8
:1003B000000000001027E80364000A00010000109C
:1003C00000011000010044535441434B454E44008A
:1003D00048535441434B454E4400CFD3D1CA200D1E
:1003E0000A00CFEEE8F1EA20E2F1E5F520F2E5F0CF
:1003F000ECEEECE5F2F0EEE220EDE020F8E8EDE5E1
:1004000020312D576972652E20CDE0E9E4E5EDEE4F
:100410003A2000256420F8F2F3EA0D0A00D1F2E058
:10042000F0F220E8EDE8F6E8E0EBE8E7E0F6E8E8EF
:1004300020EFE5F0E8F4E5F0E8E82E2E2E0D0A00B6
:1004400041A042A1E045A3A4A5A64BA74D484FA8B3
:10045000504354A9AA58E1ABACE2ADAEADAFB0B1D8
:1004600061B2B3B4E365B6B7B8B9BABBBCBD6FBED1
:100470007063BF79E478E5C0C1E6C2C3C4C5C6C72E
:10048000000000000000010000000000000000006B
:1004900000000000FFCD7F7F0A0000000000B400D4
:1004A00064004006881330F8DC059808000000005E
:1004B000000000000000000001000004FFFFFFFF3B
:1004C000FFFFFFFFFEFFFFFFFFFFFFFFFFFDFFFF3F
:1004D000FFFFFFFFFFFFFCFFFFFFFFFFFFFFFFFB33
:1004E0000000C8EDE8F6E8E0EBE8E7E0F6E8FF201A
:1004F000EAEDEEEFEEEA2E2E2E0D0A00D1F2E0F03C
:10050000F220CDFCFEF2EEEDE020ECE5F2E0EBEEC9
:10051000E8E7E4E5EBE8FF20CF332E2025752E2514
:100520003032752E20CDE0E9E4E5EDEE2025752092
:10053000F2E5F0ECEEECE5F2F0EEE22E0D0A00C78B
:10054000E0EFE8F1FC20E220454550524F4D20E716
:10055000E0E2EEE4F1EAE8F520F3F1F2E0EDEEE2BC
:10056000EEEA2E0D0A20CDE5EEEFEEE7EDE0EDED43
:10057000FBF520F2E5F0ECEEECE5F2F0EEE2203DEA
:100580002025750D0A00C7E0EFE8F1FC20E22045C8
:100590004550524F4D20F3F1F2E0EDEEE2EEEA204D
:1005A000EFEE20F3ECEEEBF7E0EDE8FE2E0D0A00A7
:1005B000C7E0EFE8F1FC20E220454550524F4D20C6
:1005C000257520EDEEE2FBF520F2E5F0ECEEECE532
:1005D000F2F0EEE22E0D0A00D3F1F2E0EDEEE2EAE7
:1005E000E020E2E5EDF2E8EBFFF2EEF0E02E202570
:1005F000752E20D3F1F2E0EDEEE2EAE020EAF0E041
:10060000EDE0202575202E0D0A002D00C4EE20F10E
:10061000EBE5E4F3FEF9E5E3EE20E8E7ECE5F0E5F1
:10062000EDE8FF20CFD3D1CA3A2025750D0A00C4CA
:10063000EE20F1EBE5E4F3FEF9E5E3EE20E8E7EC8C
:10064000E5F0E5EDE8FF20D1D2CECF3A2025750DBB
:100650000A00CDE0E6E0F2E020EAEDEEEFEAE0208D
:10066000CFD3D1CA2E2000C2EAEBFEF7E5ED20F091
:10067000E5E6E8EC20CFF0EEE3F0E5E22E204C4991
:100680004D4954203D2025642C20C2F0E5ECFF208C
:10069000EFF0EEE3F0E5E2E0203D2025640D0A00F6
:1006A000C2EAEBFEF7E5ED20F0E5E6E8EC20CFF35B
:1006B000F1EA0D0A00D0E5E6E8EC20CFF0EEE3F039
:1006C000E5E22E0D0A00D0E5E6E8EC20CEF1F2E0FE
:1006D000EDEEE2EAE82E0D0A00D0E5E6E8EC20CFE8
:1006E000F3F1EA2E0D0A00CDE0E6E0F2E020EAEDBB
:1006F000EEEFEAE020D1D2CECF2E200020D0E5E6EA
:10070000E8EC20D1D2CECF2E0D0A00C2EAEBFEF7E4
:10071000E5ED20F0E5E6E8EC20CEF1F2E0EDEEE2EA
:10072000EAE80D0A00C0E2E0F0E8FF3A2025730D88
:100730000A00C0C2C0D0C8DF3A2025730D0A00CF1E
:10074000D0C5C4D3CFD0C5C6C4C5CDC8C53A2025F1
:10075000730D0A00D0E0E7EEE3F0E5E220EAE0EB1B
:10076000EEF0E8F4E5F0E03A2025642C20D3E3EE47
:10077000EB20EAF0E0EDE020F0E0F1F7E5F2EDFB50
:10078000E9203A25642C20D3E3EEEB20EAF0E0EDFB
:10079000E020E8E7ECE5F0E5EDEDFBE9203A256443
:1007A0002C20F3E3EEEB20EEE3F0E0EDE8F7E5EDEF
:1007B000E8FF3A2025642C207420EEE1F0E0F2EA14
:1007C000E8203A256420200D0A00CEF5EBE0E6E4AF
:1007D000E5EDE8E520EAE0EBEEF0E8F4E5F0E03AFC
:1007E0002025642C20D3E3EEEB20EAF0E0EDE020BE
:1007F000F0E0F1F7E5F2EDFBE9203A25642C20D397
:10080000E3EEEB20EAF0E0EDE020E8E7ECE5F0E5F0
:10081000EDEDFBE9203A25642C20F3E3EEEB20EE2E
:10082000E3F0E0EDE8F7E5EDE8FF3A2025642C2061
:100830007420EEE1F0E0F2EAE8203A256420200D91
:100840000A00CFEEE4E4E5F0E6E0EDE8E520EAE0DA
:10085000EBEEF0E8F4E5F0E03A2025642C2020D31C
:10086000E3EEEB20EAF0E0EDE020F0E0F1F7E5F276
:10087000EDFBE9203A25642C20D3E3EEEB20EAF0EF
:10088000E0EDE020E8E7ECE5F0E5EDEDFBE9203A0E
:1008900025642C20F3E3EEEB20EEE3F0E0EDE8F747
:1008A000E5EDE8FF3A2025642C207420EEE1F0E02D
:1008B000F2EAE8203A256420200D0A00CFEEEDE8A8
:1008C000E6E5EDE8E520F1EAEEF0EEF1F2E820E20F
:1008D000E5EDF2E8EBFFF2EEF0E020F0E0F1F7E515
:1008E000F2EDEEE5203A2025642C20E8E7ECE5F077
:1008F000E5EDEDEEE5203A2025642C20D1F7E5F278
:10090000F7E8EA20F6E8EAEBEEE2203A25642C204C
:10091000504F4D5F54203A2564200D0A00D3E2E584
:10092000EBE8F7E5EDE8E520F1EAEEF0EEF1F2E8CC
:1009300020E2E5EDF2E8EBFFF2EEF0E020F0E0F18E
:10094000F7E5F2EDE0FF3A2025642C20E8E7ECE53E
:10095000F0E5EDEDE0FF203A2025642C20D1F7E50D
:10096000F2F7E8EA20F6E8EAEBEEE2203A25642C1A
:1009700020C7E0E4E0EDEDE0FF20F1EAEEF0EEF17B
:10098000F2FC203A2564200D0A00D1EAEEF0EEF1E7
:10099000F2FC20E2E5EDF2E8EBFFF2EEF0E020F011
:1009A000E0F1F7E5F2EDE0FF3A2025642C20E8E7DE
:1009B000ECE5F0E5EDEDE0FF203A2025642C20C7C2
:1009C000E0E4E0EDEDE0FF20F1EAEEF0EEF1F2FC24
:1009D0003A2025642C20504F4D5F543A2025642C3A
:1009E000205441505F414E474C455F4D494E203D9C
:1009F000202564200D0A00D0E0E7EDEEF1F2FC20A6
:100A0000F2E5ECEFE5F0E0F2F3F03A2025642C207B
:100A10005441505F414E474C45203A25642C207488
:100A2000696D655F696E746567726174696F6E2068
:100A30003A2564200D0A00253032753A253032758A
:100A40003A253032752C2025642C2025642C202555
:100A5000642C2025642C2025642C2025642C202542
:100A6000642C2025642C2025642C2025642C202532
:100A7000642C2025640D0A0044656C74612028787C
:100A800031303029203D2025642C20726573756C2F
:100A900074203D2025642C205441505F414E474C2A
:100AA00045203D2025642C20705465726D203D202A
:100AB00025642C20695465726D203D2025642C200E
:100AC000645465726D203D2025640D0A0020742554
:100AD0002D75203D20256928252D692E252D752968
:100AE000435B25303258253032583A253032785D14
:100AF00025643A25643B2000D1D2CECF20202000AF
:100B0000CFD0CEC3D0C5C200CED1D2C0CDCEC200D0
:100B1000CFD3D1CA20202000C0E2E0F0E8FF2000BF
:100B2000253032753A253032753A25303275202518
:100B30003032752E25303275202000743D25632516
:100B40003032752E253031754320257300CDE5F206
:100B500020F2E5F0ECEEECE5F2F0EEE200D1EEF1A1
:100B6000F2EEFFEDE8E5207072696D5F7061722052
:100B70005B25642062797465735D3A2000202564EA
:100B80000020255800C7E0E4E0ED204E2575202820
:100B90006E756D626572292C20EDE0F8EBE8204E51
:100BA0002575202869735F666F756E64292C20F1A6
:100BB000E2EEE1EEE4EDFBE9204E257520286973B5
:100BC0005F6E6577290D0A00D2E5F0ECEEECE5F2F8
:100BD000F0204E257520F1F3F9E5F1F2E2F3E5F2AC
:100BE00020EFEE20EFEEF0FFE4EAEEE2EEECF32091
:100BF000EDEEECE5F0F32025750D0A00D1E2EEE113
:100C0000EEE4EDFBF520F2E5F0ECEEECE5F2F0EED3
:100C1000E220EDE5F20D0A00CDEEE2FBE920544CB6
:100C2000203D2025645B253032785D20EFEE20EDFD
:100C3000EEECE5F0F32025750D0A00CFF0EEE8EDBF
:100C4000E8F6E8E0EBE8E7E8F0EEE2E0EBE820F2D7
:100C5000E5F0ECEEECE5F2F0204E257520EFEE200D
:100C6000EFEEF0FFE4EAEEE2EEECF320EDEEECE581
:100C7000F0F32025750D0A00CDE520ECEEE3F3201E
:100C8000EFF0EEE8EDE8F6E8E0EBE8E7E8F0EEE2BA
:100C9000E0F2FC20EDEEE2FBE920F2E5F0ECEEEC18
:100CA000E5F2F0204E25750D0A00C2FBEAEBFEF7D7
:100CB000E8F2E520EFE8F2E0EDE8E520E820EFEEED
:100CC000E4EAEBFEF7E8F2E520E2F1E520EEE1EE02
:100CD000F0F3E4EEE2E0EDE8E50D0A00CEF2EAEB37
:100CE000FEF7E8F2E520E2F1E520F2E5F0ECEEECCB
:100CF000E5F2F0FB2C20EAF0EEECE5205B2530324B
:100D0000785D20E820EDE0E6ECE8F2E520EAEBE0B3
:100D1000E2E8F8F32053484946542D277E270D0A70
:100D2000C2FBF5EEE420E8E720F0E5E6E8ECE020A1
:100D30002D20E2FBEAEBFEF7E5EDE8E520EFE8F237
:100D4000E0EDE8FF0D0A00D2E5F0ECEEECE5F2F0A4
:100D5000FB20EDE520EDE0E9E4E5EDFB0D0A00D236
:100D6000E5F0ECEEECE5F2F0205B253032785D202A
:100D7000F3F1EFE5F8EDEE20EFF0EEE8EDE8F6E860
:100D8000E0EBE8E7E8F0EEE2E0ED0D0A00CDE5206B
:100D9000ECEEE3F320EFF0EEE8EDE8F6E8E0EBE868
:100DA000E7E8F0EEE2E0F2FC20EDEEE2FBE920F213
:100DB000E5F0ECEEECE5F2F0205B253032785D0DED
:100DC0000A00CDE520ECEEE3F320EFF0EEE8EDE8ED
:100DD000F6E8E0EBE8E7E8F0EEE2E0F2FC20F2E52E
:100DE000F0ECEEECE5F2F0205B253032785D0D0A98
:100DF00000D2E5F0ECEEECE5F2F0205B2530327845
:100E00005D20F3F1EFE5F8EDEE20EEF7E8F9E5ED22
:100E10000D0A00CDE520ECEEE3F320EEF7E8F1F269
:100E2000E8F2FC20F2E5F0ECEEECE5F2F0205B25D8
:100E30003032785D0D0A00C7E2F3EA20E2FBEAEB0C
:100E4000FEF7E5ED0D0A00C7E2F3EA20E2EAEBFE69
:100E5000F7E5ED0D0A00CFE5F7E0F2FC20E2EAEB62
:100E6000FEF7E5EDE00D0A00CFE5F7E0F2FC20E249
:100E7000FBEAEBFEF7E5EDE00D0A20C2F0E5ECFF42
:100E80002C20D2E5ECEFE5F0E0F2F3F0E020E7E033
:100E9000E4E0EDEDE0FF2C20D2E5ECEFE5F0E0F250
:100EA000F3F0E020E8E7ECE5F0E5EDEDE0FF2C20E5
:100EB00044656C74612C20D3E3EEEB20EAF0E0EDA6
:100EC000E020F0E0F1F7E5F2EDFBE92C20D3E3EED2
:100ED000EB20EAF0E0EDE0E8E7ECE5F0E5EDEDFB36
:100EE000E92C20D3E3EEEB20EEE3F0E0EDE8F7E5CC
:100EF000EDE8FF2C20726573756C742C20705465BE
:100F0000726D2C20695465726D2C20645465726D6D
:100F10002C20CEE1EEF0EEF2FB20F0E0F1F7E5F26E
:100F2000EDFBE52C20CEE1EEF0EEF2FB20E8E7EC65
:100F3000E5F0E5EDEDFBE5E50D0A00C2F0E5ECFFBF
:100F40003A20253032753A253032753A25303275DF
:100F50002C20E4E0F2E03A253032752E253032754F
:100F60002E253032752C20EDE0E9E4E5EDEE20256C
:100F70007520F2E5F0ECEEECE5F2F0EEE20D0A00A1
:100F800043EEE1FBF2E8E5203D2025750D0A00D394
:100F9000E4E0EBE8EBE820E0EAF2E8E2EDF3FE2043
:100FA000F2F0E5E2EEE3F33A2025730D0A00C8ED16
:100FB000E8F6E8E0EBE8E7E8F0F3E5EC20E2F1E55D
:100FC00020F2E5F0ECEEECE5F2F0FB210D0A002555
:100FD000730900C2F1E5EC20EDE0E9E4E5EDFBEC9E
:100FE00020F2E5F0ECEEECE5F2F0E0EC20EFF0EED4
:100FF000EFE8F1FBE2E0E5EC20307836392030789C
:101000004645202D20D2E5F0ECEEECE5F2F020E2B2
:1010100020EFEEECE5F9E5EDE8E80D0A00C2F1E5B8
:10102000EC20EDE0E9E4E5EDFBEC20F2E5F0ECEEA0
:10103000ECE5F2F0E0EC20EFF0EEEFE8F1FBE2E0BF
:10104000E5EC20307836392030784644202D20D207
:10105000E5F0ECEEECE5F2F020EDE020F3EBE8F665
:10106000E50D0A00C2F1E5EC20EDE0E9E4E5EDFB79
:10107000EC20F2E5F0ECEEECE5F2F0E0EC20EFF045
:10108000EEEFE8F1FBE2E0E5EC2030783639203095
:10109000784643202D20D2E5F0ECEEECE5F2F0208E
:1010A000EDE020EFEEE4E0F7E520E2EEE4FB0D0AF0
:1010B00000C2F1E5EC20EDE0E9E4E5EDFBEC20F227
:1010C000E5F0ECEEECE5F2F0E0EC20EFF0EEEFE82E
:1010D000F1FBE2E0E5EC203078363920307846420A
:1010E000202D20D2E5F0ECEEECE5F2F020EDE02052
:1010F000EEE1F0E0F2EAE520E2EEE4FB0D0A00CDDD
:10110000E0E6E0F220F1E8ECE2EEEB203078257842
:101110000D0A000000060C13191F262C32383F451B
:101120004B51585E54D90500010000030102010033
:101130000200030000120104000000010500001677
:10114000000600000000070014000E010805000D55
:10115000010913000F010A030010010B0B0011011C
:101160000C0000020129000018012A00980806015D
:101170000FD00705000DA2FE05000E201C05001073
:10118000641905001128000400122A000401135FED
:1011900000040014640004011501000100160100A0
:1011A000010117003CF6070118AC0D080119E8030E
:1011B00008011ADC0506011B1E000B011C0A000BAE
:1011C000011D010009011E000009011F00000901A5
:1011D00020000005012100000A0122000005012372
:1011E00000000A0124000005012500000A01260074
:1011F0000005012700000A012800000017003D003B
:101200000017003E000017003F00001700400000DC
:1012100017004100001700420000170043000017AC
:1012200000440000170045000017004600001700AA
:10123000470000170048C7E0EFE8F1FC20E2F0E5C6
:10124000ECE5EDE820253032753A253032753A303C
:10125000300D0A00C4E0F2E020253032752E253032
:1012600032752E3230253032750D0A00C7E0EFE8B6
:10127000F1FC20E4E0F2FB20253032752E253032DF
:10128000752E3230253032750D0A00C2F0E5ECFFC4
:1012900020253032753A253032753A30300D0A004B
:1012A000D3E4E0EBE8EBE820E0EAF2E8E2EDF3FE7D
:1012B00020F2F0E5E2EEE3F33A2025730D0A00C8D0
:1012C000EDE8F6E8E0EBE8E7E8F0F3E5EC20E2F142
:1012D000E520F2E5F0ECEEECE5F2F0FB210D0A0082
:1012E0002573002573C2CACB2E002573C2FBEAEB1F
:1012F0002E0025732575252500257325750025737A
:101300002564002573D1D2CECF002573CFD0CEC3B4
:10131000D0C5C2002573CED1D2C0CDCEC2002573B8
:10132000CFD3D1CA002573202A2A00257325752121
:10133000002573CDC5D2002573C7C8CCC000257366
:10134000CBC5D2CE002573253032753A25303275A3
:10135000002573253032752E253032752E2530321A
:101360007500257320C2F02E2FC4E0F22E002573E5
:1013700025303375002573256325752E252D3031D5
:1013800075430025733230257500C2FBE1EEF02075
:10139000ECE5EDFE205B25752C2025755D002031E8
:1013A000292025732C0932292025730D0A00D2E546
:1013B000EAF3F9E5E520ECE5EDFE3A2000257309B6
:1013C0000000C7E0EFE8F1FBE2E0E5EC2053455414
:1013D00054494E475320E220454550524F4D205B23
:1013E000307825785D3A20000D0A00C7E0EFE8F17B
:1013F000FBE2E0E5EC20414C41524D2023257520D5
:10140000E220454550524F4D205B307825785D20D5
:10141000EFEE20E0E4F0E5F1F320307825783A0DA6
:101420000A00D1F7E8F2FBE2E0E5EC20E8E720452E
:101430004550524F4D205B307825785D3A200000B2
:10144000253032753A2530327520253032752E25FB
:10145000303275002573003E202573202569202534
:10146000692025730D0A00C2F1E520E0E2E0F0E812
:10147000E83A0D0A0000D1F2F3EAF2F3F0E020734B
:1014800069676E616C73203D00202578000D0A00AD
:10149000FF000000000000003303FF000000000018
:1014A00000003305FF000000000000003306FF00CD
:1014B0000000000000003307FF00000000000000F3
:1014C0003302FF000000000000003304FF000000B2
:1014D00000000000360101002D4E414E00000900C1
:1014E0006000C60309000000D0030700B8018004B3
:1014F00058006001880401000600E0042300340263
:1015000024112300EE024811370057026C115500D8
:101510001103A4113C008E02FA114600B20390148C
:101520000100F803D6140000F894EE27ECBBF1E0BC
:10153000FBBFEBBFE5BFF8E1F1BDE1BD8DE0A2E08F
:10154000BB27ED938A95E9F780E098E0A0E6ED935C
:101550000197E9F7EEEDF4E185919591009761F03F
:10156000A591B59105901590BF01F00105900D92E0
:101570000197E1F7FB01F0CFEFE5EDBFE8E0EEBF4B
:10158000C0E6D1E00C94590D0E941829E091D801D1
:10159000E03019F0E150E093D801E091D501F091ED
:1015A000D601309709F1A5EDB1E0ED91FD913197AC
:1015B000FE93EE93E091D501F091D601309721F49E
:1015C000A091B901A13009F00FC0E1E0E093BC01A6
:1015D000EAEDF3E00E942629E3E0E093B901E0E0C0
:1015E000E093D9010E942D29E091D701E03071F0FC
:1015F000E150E093D701E03021F4A091B901A2308D
:1016000009F004C00E9431290E943729E091D401D9
:10161000E03091F0E150E093D401E03069F4E091E2
:10162000CB01E03031F0E091D401EF5FE093D401E1
:1016300003C0E6E0E093CB01E091BD01E03019F496
:10164000E0E0EA936FD0E0E0EA930E947A19E0E0EC
:10165000EA933DD00E943F2FE0937A02F0937B0201
:10166000E1E0EA9334D00E943F2FE0937002F093C0
:1016700071020E943B29309739F0A2EDB1E0ED9163
:10168000FD913197FE93EE93E091CB01E03019F498
:10169000E5E0E093CB010CC018950E9418290E9448
:1016A0002425E091D502E03019F0E150E093D50215
:1016B000E991EFBFF991E991B991A9919991899136
:1016C00079916991F9901990099018951895E88188
:1016D000E06CE7B98CE08A95F1F7369A349BFECF3F
:1016E000349AE4B1F5B1E3C1F894E091CC01EA9306
:1016F000E091CD01EA93E091CE01EA930E940F2799
:10170000E091D101EA93E091D001EA93E091CF0119
:10171000EA930E94372778940E944029E1E0EA93F7
:1017200001D00895E881E03031F00E944629E0E0E0
:10173000EA930E94E926ECECF1E0FA93EA93EDECEF
:10174000F1E0FA93EA93EEECF1E0FA93EA930E9467
:10175000FE26E1EDF1E0FA93EA93E0EDF1E0FA9391
:10176000EA93EFECF1E0FA93EA930E9420279FC1FD
:101770001A930A93E0E0EBB9E6E8E0BDE8E1EAB9E4
:1017800001E010E009B9E12FF070E0BD0991199175
:101790000895E2EEF3E00E9426290E944B29E0938F
:1017A00093010E944029E3E1F4E0FA93EA930E9456
:1017B00053290E945B290895E0E0EBBBECEFEABB04
:1017C000E7E0E8BBE8EFE7BBEFEFE5BBE0E0E4BB59
:1017D000EDE0E2BBE2EFE1BBECE6E3BFE0E0E2BF5D
:1017E000ECBFEFBDE2E0EEBDE0E0EDBDECBDE7BD7E
:1017F000E6BDEBBDEABDE9BDE8BDE2BDECE6E5BD99
:10180000E0E0E4BDE3BDEBB7E06EEBBFE6E0E5BFD3
:10181000E0E0E4BFE0EEEABFE5E4E9BFA9DFE0E82D
:10182000E8B9E0E0E0BFE0ECE7B9E6EAE6B9E0B746
:10183000EF71E0BFEDE1F4E00E942629E4EFF1E072
:101840000E9460290E94D32DE0E0E093BD01E1E019
:10185000EA9368DF9EDFECE0EA930E94310DE0E05E
:10186000E0931F020E9464290E9469290E9437297F
:101870000E946D290E94752908950E947929C698B1
:101880000895E881E03011F0C59A01C0C598C79865
:10189000D49AD59AD69AD79ADF98DE98DD98DC98B4
:1018A000E981E07809F0DF9AE981E07409F0DE9AD5
:1018B000E981E07209F0DD9AE981E07109F0DC9AD2
:1018C000DCDFDF98DE98DD98DC98E981E87009F0CC
:1018D000DF9AE981E47009F0DE9AE981E27009F0AB
:1018E000DD9AE981E17009F0DC9AC7DFDC9ADD9AC4
:1018F000DE9ADF9A97C00A93E981E03011F0C59A29
:1019000001C0C598C79AD498D598D698D7980E9400
:10191000792900E0CC990061D5990062D6990064DC
:10192000D7990068C69886EE90E00197F1F70E947B
:101930007929CC990160D5990260D6990460D7992C
:101940000860C698E02F08816DC0E0E0EA93D3DF1D
:10195000E078D9F78CE08A95F1F7E0E0EA93CBDF05
:1019600008950A93A981A03410F400E401C000E0B6
:10197000E02FE058EA9302D0088154C0E6DFE88106
:10198000EA93E0E0EA937DDF92C0E881E03019F469
:10199000E981E05802C0E981E054EA93EFDF42C0F8
:1019A000E1E0EA93EBDF0895EF97219780E4A0E070
:1019B000B0E0E0E4F4E00E944C310A93C6DF0E2F61
:1019C000DE01AF5BBF4FAC91AA3019F40A93C9DFB7
:1019D0001AC0DE01AF5BBF4FAC91A03C28F4FE0102
:1019E000EF5BFF4FE0810BC0FE01EF5BFF4FE0813B
:1019F000E05CF0E0DE011196AE0FBF1FEC91EA93C0
:101A0000E1E0EA933EDF0881EF9623960895A881EE
:101A1000B981EC91E03031F0ED91A883B983EA937C
:101A2000C3DFF5CF229608950A9300E00F3070F4DB
:101A3000AA81BB81EC91E03021F0ED91AA83BB83B8
:101A400001C0E0E2EA93B0DF0F5FF0CFE981E03060
:101A500011F0EEE301C0E0E2EA93A6DF08812496EC
:101A60000895BD9ABF9ABE9AD49AD59AD69AD79A13
:101A7000E0E1F0E00E946029DD9ADC9AFEDEE9E216
:101A8000F0E00E9460290E947F290E947F29DC9853
:101A90000E947F29E8E2EA9371DFE8E0EA936EDFD3
:101AA0007FDFE6E0EA936ADFE881EA9367DF219669
:101AB00008950E94DC0B7894E2EEF4E00E9426295F
:101AC0000E940026ECEFF4E0FA93EA93E4E0F0E001
:101AD00060E070E00E940830E1E0F0E060E070E07B
:101AE0000E9408300E9453290E94852908E50E941F
:101AF0008A2919F40E94902909F00DC021970E94AB
:101B000096290E949D290A930E94FD22EFE3F5E0A9
:101B10000E94A2292AC02197E02FE452E8830E9464
:101B20008A2969F4E4E0E0939301E6E8F5E00E9495
:101B300026290E949D29EA81EA930E94FD220E94A3
:101B4000902999F421970E949D29EB81EA930E94A4
:101B500048230E949629E0EBF5E00E94A2290E940A
:101B60009D290A930E94FD22219621960E949D297B
:101B70000A930E9448230E94AB290E94AF290E9429
:101B8000872379D7E3D7E0919001E03011F0E1E0CD
:101B900001C0E0E0EA930E94BD250E94B3290E94A3
:101BA000BB290E94C02966277727EC50FE4F6F4F54
:101BB0007F4F2F01F2010E944A2F0E947D30A0E04A
:101BC000B0E08CE992E40E94F930A0E0B0E08AE74E
:101BD00094E40E94AB30AFEBB1E00E944630ED934D
:101BE000FC930E94C4290E94CB2924F40E94C4299A
:101BF0000E94D3290E94EB2924F4A5E7B2E0E62D48
:101C000004C0A5E7B2E0E0916C01F0E0ED93FC9335
:101C1000E8EDF5E00E94F4290E94FF290E94042AC1
:101C20000E94092A0E9494170E943F2604D02ED1B8
:101C300016D4F8CFFFCFE0911F020E940E2A3197F1
:101C400048F0A0911F02A03014F4E1E001C0E3E0ED
:101C5000E093CB01A091CB01A03019F40E94902910
:101C600009F003C0E2E0E093CB01A091CB01A030EA
:101C700019F40E948A2909F003C0E4E0E093CB0143
:101C8000A091CB01A03021F4E0E00E94122A09F0DB
:101C900003C0E8E0E093CB01A091CB01A03041F478
:101CA000E0915002E03021F4E1E00E94122A09F0B4
:101CB00003C0E7E0E093CB01A091CB01A03041F459
:101CC000E0918401E03021F4E4E00E94122A09F45A
:101CD00003C0E9E0E093CB01A091CB01A03041F437
:101CE000E0918501E03021F4E5E00E94122A09F438
:101CF00003C0EAE0E093CB01A091CB01A03041F416
:101D0000E0918F01E03021F4E6E00E94122A09F010
:101D100003C0EBE0E093CB01A091CB01A03041F4F4
:101D2000E0918B01E03021F4A091E801A53008F4A6
:101D300003C0EFE0E093CB01A091CB01A03041F4D0
:101D4000E0918C01E03021F4A091EE01A53008F47F
:101D500003C0E0E1E093CB01A091CB01A03041F4BE
:101D6000E0918D01E03021F4A091F401A53008F458
:101D700003C0E1E1E093CB01A091CB01A03041F49D
:101D8000E0918E01E03021F4A091FA01A53008F431
:101D900003C0E2E1E093CB010E94C4290E94CB2959
:101DA00014F00C94260FA091CB01A03099F4E0918F
:101DB0008C01E03021F4E0918601E03009F00AC0A6
:101DC000A091E901B091EA010E94BB293597AE17B5
:101DD000BF070CF003C0ECE0E093CB01A091CB0176
:101DE000A030A1F4E0918B01E03021F4E091870173
:101DF000E03009F00BC0E0918001F0918101A091E9
:101E0000E301B091E401AE17BF070CF003C0EDE0B1
:101E1000E093CB01A091CB01A030A1F4E0918E0121
:101E2000E03021F4E0918901E03009F00BC0A0918D
:101E3000F501B091F601E0917A01F0917B01AE17C6
:101E4000BF070CF003C0EEE0E093CB01A091CB0103
:101E5000A03021F4E091BA01E03009F416C0E0911D
:101E6000BA01E450E093BA01E091BA01E03021F008
:101E7000E0915002E03009F002C0E7E001C0E8E084
:101E8000E093CB01E0E0E093BA010895E091CB014B
:101E9000E53011F00C94940FE0E0EA934FD6E09314
:101EA0003402F0933502E091B801E03011F44ED6DF
:101EB00006C0E13021F4E0E0EA930E949B1FE0912C
:101EC000CA01E03021F0A091B901A13009F004C0AD
:101ED000EAE0F6E00E942629E091CA01E03021F014
:101EE000A091B901A33009F008C0ECE0F6E0FA9344
:101EF000EA930E94172A0E945B29E091CA01E03010
:101F000021F0A091B901A03009F00AC0EFE2F6E09B
:101F1000FA93EA93E091D8010E941D2A0E945B295E
:101F2000E0E0E093CB019AC2E13011F0E33039F503
:101F3000ECE3E093D401E0E0E0931F02EA930E9417
:101F40007825E091B801E03029F40E94AF290E9481
:101F5000232A11C0E13039F4E091CB01E250EA9339
:101F60000E949B1F08C0E23031F4E091CB01E250A7
:101F7000EA930E94C020E0E0E093CB016FC2E23020
:101F800009F5E1E0E093D802E0E0E093CB010E94A4
:101F90002C2AECE3E093D401E091B801E03029F47D
:101FA0000E94AF290E94232A0CC0E13019F40E943C
:101FB000F61F07C0E23029F40E946620E1E0E093BA
:101FC000B8014CC2E63041F4E091B801E03019F0BC
:101FD000ECE3E093D40102C0E43039F5A091CB01E9
:101FE000A43041F40E942C2AE1E0E093D902ECE312
:101FF000E093D401E0E0E093CB01E091B801E03060
:1020000011F4A4D50FC0E13019F40E94302A0AC09F
:10201000E23019F40E94302A05C0E33019F4E1E0FF
:10202000E093B8010E94D00C19C2E73011F00C9473
:102030009110E1E0E093D702E2E5F6E00E94262964
:10204000E091B901E03011F00C946B10E091900137
:10205000E03021F10E94372AE1E0E093BB01E093F8
:10206000B9010E943B2AE093D501F093D6010E946A
:10207000402AE7E6F6E0FA93EA93E091BF01F09197
:10208000C0010E94042A0E943B2A0E94042A0E9446
:10209000092AE4E0EA930E94B0250EC00E94752947
:1020A000E0E0E093BB01E3E0E093B9010E942D2959
:1020B000E0EAF6E00E9426290E94B3290E94472AFE
:1020C00014F40E944F2AE0E0E093D9010E94562ABE
:1020D0000E945C2A22C0E13049F40E942C2A0E940E
:1020E000602AE5EBF6E00E94262917C0E23059F499
:1020F0000E942C2AE3E0EA930E94B025E6ECF6E089
:102100000E9426290AC0E33041F40E942C2A0E9432
:102110002D29E9EDF6E00E942629E0E0E093CB01CD
:102120009DC1E83011F00C94E810E1E0E093D60294
:10213000E7EEF6E00E942629E091B901E03059F47B
:102140000E942C2A0E94562A0E943729ECEFF6E0C2
:102150000E94262937C0E130B1F4E2E0E093B901F2
:10216000E0E0E093D501E093D6010E94602A0E944E
:102170005C2AEBE0F7E00E942629EAE0E093D70131
:102180000E94562A1FC0E23049F40E942C2A0E9465
:10219000562AE6ECF6E00E94262914C0E33091F4BA
:1021A000E2E0E093B901E3E0EA930E94B0250E94E7
:1021B0005C2AEBE0F7E00E942629EAE0E093D701F1
:1021C0000E94562AE0E0E093BC01E093CB0146C1B7
:1021D000E93031F50E94642A0E943129E091900192
:1021E000E03019F0E1E0E093BB010E94402AE2E018
:1021F000EA930E94BD250E9437290E946C2AE0E0E4
:102200000E94752AE0E0EA930E94B623E5E2F7E037
:102210000E947B2A0E94802AE0E0E093CB011EC14D
:10222000EA30F1F40E94642A0E94602A0E94312957
:10223000E1E0E093BB010E94402A0E946C2AE1E0A9
:102240000E94752AE1E0EA930E94B6230E94872A41
:10225000E1E0EA930E94802AE0E0E093CB01FEC037
:10226000EC30E1F40E946C2AE2E00E94752AE2E080
:10227000EA930E94B623E0919001E03019F0E1E08A
:10228000E093BB010E94402A0E94872AE2E0EA9381
:102290000E94802AE0E0E093CB01E0C0ED30F9F449
:1022A0000E946C2AE3E00E94752AE3E00E948C2AD7
:1022B0000E9437290E943129E0919001E03019F005
:1022C000E1E0E093BB010E94402A0E94872AE3E0FC
:1022D000EA930E94802AE0E0E093CB01BFC0EE3099
:1022E000F9F40E946C2AE5E00E94752AE5E00E945C
:1022F0008C2A0E9437290E943129E0919001E03018
:1023000019F0E1E0E093BB010E94402A0E94872A75
:10231000E5E0EA930E94802AE0E0E093CB019EC0D2
:10232000EF3019F50E94902AE091E8010E94952A69
:10233000E7E00E94752AE7E00E948C2A0E94372974
:102340000E943129E0919001E03019F0E1E0E09342
:10235000BB010E94402A0E94872AE7E0EA930E947C
:10236000802AE0E0E093CB0179C0E03109F50E94DA
:10237000902AE091EE010E94952AE8E00E94752AD9
:10238000E8E00E94992A0E943129E0919001E03012
:1023900019F0E1E0E093BB010E94402A0E94872AE5
:1023A000E8E0EA930E94802AE0E0E093CB0156C087
:1023B000E131C9F40E94902AE091F4010E94952A2B
:1023C000E9E00E94752AE9E0EA930E94B623EFE370
:1023D000F7E0FA93EA93E9E0EA930E94802AE0E0CA
:1023E000E093CB013BC0E23109F50E94902AE091D5
:1023F000FA010E94952AEAE00E94752AEAE00E940A
:10240000992A0E943129E0919001E03019F0E1E031
:10241000E093BB010E94402A0E94872AEAE0EA93E7
:102420000E94802AE0E0E093CB0118C0EB30B1F4C9
:102430000E946C2AEBE00E94752AEBE0EA930E946E
:10244000B623E0E0E093CB010E94872AEBE0EA9319
:102450000E94802AE2E0EA930E94A32508950E9448
:102460004031E091E301F091E401E0935C02F093EC
:102470005D02E091E901F091EA01E0936102F093DD
:1024800062020E94A52AE091EF01F091F001E09331
:102490006602F0936702E091F501F091F601E09396
:1024A0006B02F0936C02E0917502ECBFE0917F0249
:1024B000E3BDE091BC01E03011F4949801C0949A1E
:1024C000E091BB01E03011F4959801C0959AA4E821
:1024D000B2E0E091BC010E94AE2A0E94B22AE091D3
:1024E000B901E03011F00C9468130E94562AE09173
:1024F0009001E03011F40C946013E0919001E03011
:1025000029F00E94C4290E94CB290CF008C00E9427
:10251000C4290E94D329E4E66E1608F46E2EA09119
:102520007C01B0917D01E0916B02F0916C02AE1BD9
:10253000BF0B0E94B72AE093DD02F093DE020E94F7
:10254000BC2AE85CF0408F010E94BC2AE45FF140A5
:102550000E94C12A24F0A091D801A03009F038C00F
:10256000E4E1E093D8010E94FF290E94C92A0E9459
:10257000EB2914F40E94D42A0E94D82A14F00E9455
:10258000402A0E94E02AA217B30734F4E3E0EA935A
:102590000E94BD25E1E003C00E94372AE0E0E093FD
:1025A000BB01E091CA01E03099F0E4E5F7E00E9458
:1025B000E52A0E94FF290E94042A0E94EC2AE62DA7
:1025C0000E941D2A0E94E02A0E94F12A0E94F62AF7
:1025D0000E94BC2AE650FF4F8F010E94BC2AEC509B
:1025E000FE4F0E94C12A24F4A091D801A03009F026
:1025F0003CC0E4E1E093D8010E94EB2914F40E946E
:10260000D42A0E94D82A14F00E94402A0E94E02A6C
:10261000A017B10724F0A091BB01A13009F005C0BB
:102620000E94372AE0E0E093BB010E94E02AA21753
:10263000B30724F00E94FF290E94C92AE091CA0131
:10264000E03099F0EAECF7E00E94E52A0E94FF29C9
:102650000E94042A0E94EC2AE62D0E941D2A0E9454
:10266000E02A0E94F12A0E94F62AE091D801E03087
:1026700031F5E4E1E093D801A0916602B0916702E0
:102680000E94BC2AAE17BF071CF0E0E0E093BB013C
:10269000E091CA01E03099F0E2E4F8E00E94E52A16
:1026A0000E94FF290E94042A0E94EC2AE62D0E9423
:1026B0001D2A0E94E02A0E94F12A0E94F62A05C0E3
:1026C0000E947529E0E0E093BB010E943729BEC05B
:1026D000E33011F00C942614E0919001E03019F0F1
:1026E0000E94372A04C00E9475290E94B3290E94C3
:1026F0003B29309711F00C9424140E94FB2AA091DE
:102700005702B0915802AE1BBF0BBA93AA93E8E7E9
:10271000FCEEFA93EA93E8E8F3E1FA93EA93DFD068
:10272000E0917801F0917901E093D201F093D30127
:10273000E0919001E03029F00E94C4290E94CB2949
:102740000CF082C00E94FF29EF3FA0E0FA0751F48D
:102750000E94FB2AE85CF040DF010E94002BAE17CC
:10276000BF070CF022C00E94052BF1F40E940E2B33
:102770003A970E94132B0E94472A14F40E944F2A72
:10278000E091CA01E03081F0ECEBF8E00E94F4291E
:102790000E941B2BE091D9010E941D2A0E94FB2A56
:1027A0000E94042A0E94202B38C00E94252BAE17BD
:1027B000BF075CF4A0915C02B0915D02A45DBE4FC6
:1027C0000E94002BEA17FB070CF024C00E94052B87
:1027D00001F50E940E2B3A960E94132B0E94252B86
:1027E000EA17FB0714F40E94B329E091CA01E03014
:1027F00081F0EDE1F9E00E94F4290E941B2BE091A9
:10280000D9010E941D2AE0916D010E941D2A0E949B
:10281000202B03C0E0E0E093D901E091CA01E03051
:1028200099F0EAE8F9E00E94F4290E941B2BE0915C
:102830006D010E941D2A0E94FB2A0E94042AE62D97
:102840000E941D2A0E94F62A0E942D290E944731CB
:10285000249608950E94C4290E94CB2924F40E9442
:10286000C4290E94D3290E94EB291CF40E94D42A77
:1028700005C00E94D82A14F00E94402A0895A09111
:102880007602AA231AF00E94D82A0CF013C0609195
:10289000750270917602A881B9810E94B72ADF0182
:1028A0000E942D2B0E94822FE60FF71FE0937502E6
:1028B000F0937602CFDFE7EFF9E0FA93EA93EA814B
:1028C000FB810E94042A0E94FF29A4E6B0E00E9436
:1028D000322B0E94172A0E9485292296089522975A
:1028E0000E943E310E942D2BAC85BD850E94822F17
:1028F000DF01EAE0F0E00E949F2F8F01EC85FD856B
:102900000E943A2BEA0FFB1FE093E102F093E202F0
:102910000E94252BAE17BF0714F40C94DD140E94FF
:102920003F2B3CF0EA85FB850E943A2BAE17BF0790
:1029300064F40E943F2B1CF4E885F98502C0EA8507
:10294000FB85E093E102F093E202E0917201F091E5
:1029500073010E943A2B0E94822FDF010E94B72A46
:10296000AF0100907401109075010E94FB2AA091A4
:10297000DF02B091E002EA1BFB0BD0010E94822F24
:102980009F010E94FB2AE093DF02F093E002FA012C
:10299000E00FF11FE21BF30BEE83FF83AE81BF81DB
:1029A0000E94B72AA0917502B0917602EA0FFB1F30
:1029B000E0937502F09376024DDFE091CA01E030BA
:1029C000A9F5E7E3FAE00E94452B0E944A2B0E94FA
:1029D0004D2B0E94002B0E94042A0E94FB2A0E9479
:1029E000042AEAA1FBA10E94042A0E94FF290E9456
:1029F000042A0E94EC2AE62D0E941D2AECA5FDA5C2
:102A00000E94042AF8010E94042AFA010E94042A62
:102A1000F9010E94042A0E940E2B0E94042A0E949F
:102A20001B2B8CE30E94C128EE9621C0E8E7FAE058
:102A3000FA93EA93EE85FF850E94042AEC85FD85D2
:102A40000E94042A0E94FF290E94042AF8010E9481
:102A5000042AFA010E94042AF9010E94042A0E9411
:102A6000FB2A0E94042A8CE10E94C1286E960E94D3
:102A700045312E96089522970E943E31E0919301B0
:102A8000E03009F4B3C164D4EE83FF8320E0E09129
:102A900093012E1710F00C949B150E94502BEDB74C
:102AA000FEB7FA93EA933F9394D53F910E94502B3F
:102AB000D2D48F01E0E04E2F5E2F0E94502BEDB755
:102AC000FEB7FA93EA935F93EDB7FEB7FA93EA93F2
:102AD0004F933ED54F915F91EDECFAE0FA93EA9374
:102AE000E22FEF5F0E941D2AF8010E94042AD801FC
:102AF0000E94B72A0E94042AD8010E94582B0E94E3
:102B00005D2BA88DB98D1196EC910E941D2AAC8D7C
:102B1000BD8DEC910E941D2AE32F0E941D2AE52FF6
:102B20000E94622BE42F0E94622B84E20E94C12843
:102B3000A6962F5FACCF0E94672B58C1E8810E94F8
:102B40006A2BDF010E9400302196089528970E9489
:102B50003F3110E02BE2309134024091350200E029
:102B60000C3048F40E94702B11F0093009F401C0B8
:102B70001F5F0F5FF5CFE091B901E03039F40E949B
:102B8000782BE8EFFAE00E947D2B1AC0E13039F48F
:102B90000E94782BE0E0FBE00E947D2B11C0E23028
:102BA00039F40E94782BE8E0FBE00E947D2B08C0FE
:102BB000E33031F40E94782BE0E1FBE00E947D2BB2
:102BC000103039F00E94782BE8E1FBE00E947D2B69
:102BD00002C00E946D29ECE0EA930E94BE0C0E94A4
:102BE000842B0E94892BE0E2FBE00E94452B0E948F
:102BF0004A2B0E944D2B0E948E2B0E94912B84E128
:102C00000E94AD2868960E94892B0E94070D0E94A1
:102C100046290E94C50CE0919301E03019F144234C
:102C200012F4EDE201C0EBE22E2F0E94892BEBE3C0
:102C3000FBE0FA93EA93E22F0E941D2A0E94942B54
:102C40000E949C2B0E94942B0E94CE2FDF01EAE071
:102C5000F0E00E949C2BFE0175960E945D2B0E9465
:102C60009F2B06C00E94892BEDE4FBE00E947D2B88
:102C70000E94892B0E94070D0E9446312D960895CF
:102C80001A930A93EDE5FBE00E94A42B0E945B29B6
:102C900000E0EA810E17B0F4AB81BC811D91AB83DB
:102CA000BC83E4520E1718F4EDE7FBE002C0E1E844
:102CB000FBE0FA93EA93E12F0E941D2A0E945B2910
:102CC0000F5FE7CF0E94672B19810881B2C321975C
:102CD0000E943E3110E020E00E944B29EE830E94CA
:102CE0004029C9DE00E0EE810E1788F50E94A82B6E
:102CF000EDB7FEB7FA93EA934F93EDB7FEB7FA93A9
:102D0000EA933F9325D43F914F913B3B29F4E42F25
:102D10000E940E2A329701C0EFEF5E2F103061F44F
:102D2000EF81A52F0E94B02BEA17FB0719F4E02FC3
:102D3000EF5F01C0E0E01E2F203039F45F3F11F457
:102D4000E0E002C0E02FEF5F2E2F0F5FCCCFE5E871
:102D5000FBE00E94B52BE12F0E941D2AE22F0E946A
:102D60001D2A0E948529103051F0E8ECFBE00E94FA
:102D7000B52BE12F0E941D2A0E94092A37C020305E
:102D800029F4ECEFFBE00E94262930C0AF81EEEF82
:102D9000EA1B4E2FE22FE1500E2FE8E1FCE0FA9300
:102DA000EA93E42F0E94622BE42F0E94622BE02F13
:102DB0000E941D2A0E9485290E94A82B4A93EBEBB2
:102DC0000E94B92B69F0EBE3FCE00E94B52BE22FE7
:102DD0000E941D2A0E94092A0E9440290C94940AEC
:102DE000E8E7FCE00E94B52B0E945B290E94453178
:102DF00028960895EAEAFCE00E942629FFCF0A936C
:102E000000E0F894ECEDFCE0FA93EA93EB810E9489
:102E1000622B0E945B295F990CB10E37E1F70E948B
:102E20004B29E09393010E94402925DEE091930114
:102E3000E03029F4E7E4FDE00E94262916C0EBEF1C
:102E4000F1E0FA93EA93EB81EA93EBEB0E94B92B62
:102E500019F0EFE5FDE002C0EDE8FDE0FA93EA933A
:102E6000EB810E94622B0E945B29C4DF7894088169
:102E7000F0C2A881AB3BB9F40E94BE2BAB81EEEF50
:102E8000EA1BEA93EB810E94B92B19F0EFE5FDE014
:102E900002C0E2ECFDE0FA93EA93EB810E94622B20
:102EA0000E945B2914C00E94BE2BE1E0EA93EB81F3
:102EB0000E94B92B19F0E1EFFDE002C0E3E1FEE072
:102EC000FA93EA93EB810E94622B0E945B29C1C2B4
:102ED000E091BE01E03019F0E7E3FEE002C0E7E474
:102EE000FEE0FA93EA9380E00E94C1282296E091E6
:102EF000BE010E94552FE093BE010895E091CA01E2
:102F00000E94552FE093CA01E091CA01E03019F008
:102F1000E6E5FEE002C0E8E6FEE0FA93EA9380E030
:102F20000E94C128229608951A930A935F9B08C1B4
:102F30000CB1E02FEA37C1F4EBE3FFE00E94452B30
:102F40000E944A2B0E944D2B0E948E2B0E94912B97
:102F5000E091CF010E941D2A0E9453298CE10E941A
:102F6000C1286E9688DDECC0E33711F4B1DFE8C00C
:102F7000E73739F4E0E8FFE0FA93EA93E091CB0118
:102F8000D8C0E83711F4BADFDBC0E53619F40E9487
:102F90005924D6C0E436C1F410E01C3070F41A9302
:102FA0000E941424E03039F4EFE8FFE0FA93EA934A
:102FB0001A930E94802A1F5FF0CFEEEAFFE00E9482
:102FC00026290E94AB29BCC0E33631F40E949D291A
:102FD000E8E5EA9355DEB4C0ED36A9F410E01B3005
:102FE00078F4EFECFFE0FA93EA931A93E7E5F2E066
:102FF0000E94C72B0E945D2B0E945B291F5FEFCFB1
:103000000E94672B9DC0EE36A9F410E0173078F4CB
:10301000EFECFFE0FA93EA931A930E9464290E946E
:10302000961D0E945D2B0E945B291F5FEFCF0E94BF
:10303000672B86C0EA3419F40E943F2681C0E53729
:1030400021F4EEEFEA93DBDE7BC0E93621F4EDEF0D
:10305000EA93D5DE75C0EF3621F4ECEFEA93CFDECC
:103060006FC0E03721F4EBEFEA93C9DE69C0E033CB
:1030700041F4E3EDFFE00E942629E0E0EA9327DE39
:103080005FC0E13341F4EDE1F0E10E942629E1E087
:10309000EA931DDE55C0E23341F4E4E6F0E10E941C
:1030A0002629E2E0EA9313DE4BC0E33341F4E1EB7F
:1030B000F0E10E942629E3E0EA9309DE41C0EF3304
:1030C00021F4E3E00E94CB2B3BC0EE3321F4E2E09D
:1030D0000E94CB2B35C0EC3321F4E1E00E94CB2BD6
:1030E0002FC0ED3421F40E944629C3DE29C0E2320C
:1030F00021F4E3E00E94D02B23C0EA3321F4E2E084
:103100000E94D02B1DC0EC3421F4E1E00E94D02BB2
:1031100017C0EB3421F4E0E00E94D02B11C0E9335A
:1031200019F40E948A240CC0EFEFF0E1FA93EA93BD
:10313000E02FFF27662777270E9408300E945B292F
:103140007BC00E943E3100E010E0E09193011E1729
:1031500010F00C94EB18A9E01A9FF001E550FE4F17
:10316000FA93EA93EDB7FEB7FA93EA934F93EDB76C
:10317000FEB7FA93EA933F93EBD13F914F915E2FC5
:1031800051303CF120E0293020F53B3B61F4E42F45
:103190000E940E2A3297A9E0B0E00E945A2FEC5606
:1031A000FE4FDF0103C00F5FA1ECB1E0E22FF0E0C2
:1031B000EA0FFB1FBF01A9E01A9FF001E550FE4F87
:1031C000DF01EE27A20FBE1FEC91DB01EC932F5F16
:1031D000DACF1F5FBACFE02F0E944531C9C11A93E1
:1031E0000A9300E0E09193010E1730F510E01930DA
:1031F00008F5A9E00A9FF001E550FE4FDF01E12F3D
:10320000F0E0EA0FFB1FFF93EF93A4E9B1E0E02F9A
:103210000E94D52BA9E0B0E00E945A2FDB01AE0F2F
:10322000BF1FEE27A10FBE1FEC91AF91BF91EC9392
:103230001F5FDDCF0F5FD6CF099119910895A98146
:10324000A43008F055C0E9810E946A2BAA81BB8195
:10325000A083B183A881A130C9F4AA81BB81A13F19
:10326000E8EDBE0721F40E94D82BA5E003C00E9420
:10327000D82BA0E0A0830E94DF2BBF01E9810E9430
:103280006A2B0E94E62BED93FC9332C0E9810E94E9
:103290006A2B608171810E94DF2B0E94E62BAE1B9E
:1032A000BF0BBA93AA930E94D028E83EA3E0FA0786
:1032B00078F40E94DF2BBF01E9810E946A2B0E94F3
:1032C000E62BED93FC930E94D82BA0E0A08310C0C6
:1032D000E9810E946A2BBF010E94DF2B0E94E62B2E
:1032E000ED93FC930E94D82BDF01EC91EF5FEC9300
:1032F000249608950A93A981A130A1F470DF00E01B
:10330000E09193010E1770F40E94A82BE1E0EA937C
:1033100031D10E9440290E94A82B8DD00E944029C3
:103320000F5FEECF00E0E09193010E1778F4229743
:103330000E94A82BC9D0E883F983FA93EA930A93F1
:10334000EE81EA937CDF22960F5FEDCF088181C08A
:10335000EAEDF1E008950A930E94312EE03011F475
:10336000E0E018C0E981FA81309779F0E5E50E9444
:10337000EB2BA981BA81ED91A983BA83EA930E94CC
:10338000772E0F5F0830A8F304C0ECECEA930E949C
:10339000772EE1E00881239608950E943F3130E0C6
:1033A000ED81FE810E94F02BEEEB0E94EB2B1AEDDB
:1033B00021E02F931F931F5F2F4F0E94722EAF911A
:1033C000BF91EC930F5F0930A0F3EAEDF1E0FA93BF
:1033D000EA93E9E0EA930E94F12E0E94552F4E2FC6
:1033E0003F5F403011F4333008F001C0D9CFE42FF3
:1033F0000E9446310C94AD1D0E944131EB81FC814D
:103400000E94F02BE03011F4E0E011C0EEE40E94E5
:10341000EB2B1CED21E0A12FB22F1F5F2F4FEC9162
:10342000EA930E94772E0F5F0330A8F3E1E00E9439
:10343000483125960895E881F9810E94F02BE0300B
:1034400011F4E0E006C0E4E4EA930E94772E0E94C3
:10345000312E22960895609780E1A0E0B0E0E4E18B
:10346000F1E10E944C310E944131EB89FC890E94BC
:10347000F42B19F4E1EFF8ED23C0E091DA01EF70DD
:103480000E2F1091DB012227F12FE0E0DF01E09108
:10349000DA01F0E0EA2BFB2B0E94362FA4E6B0E025
:1034A0000E94822F1E2F2F2FE02FF0E0DE011396B7
:1034B000AE0FBF1FEC91F0E01E0F2F1FE12FF22F78
:1034C0000E944831659608951A930A930E94FA2B38
:1034D000C2DF8F010E94FA2BAEDFF801198108814B
:1034E0000C94991F0E94FF2B19F4E0E00C94991F93
:1034F000E981E093DD01E881E093DC010E94FA2B91
:103500007BDFE03019F4E0E00C94991F0E94FF2B60
:1035100019F4E0E00C94991FA091DD01E981EA170C
:1035200029F4A091DC01E881EA1719F0E0E00C949D
:10353000991FEA81FB810E94F02BE03019F4E0E052
:103540000C94991F0E94022C0E94312E0C94991FFA
:10355000EC81FD810E94F42B11F4EEE909C0E091A9
:10356000DD01AA81BB81EC93E091DC010E94092C72
:10357000269608950A930E94FF2B21F4E0E008812B
:103580000C94991FE981E295E07FEE0FEF610E2F19
:103590000093DE010E94FA2B2FDFE03021F4E0E0FF
:1035A00008810C94991F0E94FA2BF7DEA091DE018E
:1035B0000A1721F0E0E008810C94991FEA81FB8151
:1035C0000E94F02B0E94022C0E94312E08810C9444
:1035D000991F0E94FF2B19F4EDE90C94991FE091BB
:1035E000DE010E94092C0C94991FEA93EFB7EA932D
:1035F000839B04C0E0911F02E15003C0E0911F02D1
:10360000EF5FE0931F02EAB7E064EABFEBB7EF7B3E
:1036100005C0EA93EFB7EA93EBB7E064EBBFE9913B
:10362000EFBFE99118951A930A93AA81A13011F07E
:103630000C94B21BAEE3B2E0E09190010E94AE2A7E
:103640000E94BB29E0931103F09312030E94BC2A4D
:10365000E0931603F0931703E0917A01F0917B0158
:10366000E0931B03F0931C03E0918001F091810132
:10367000E0932003F09321030E943B2AE09325036B
:10368000F0932603E0917801F0917901E0932A0309
:10369000F0932B030E942D2BE0932F03F093300324
:1036A000E0917201F0917301E0933403F0933503DC
:1036B000E0917401F0917501E0933903F0933A03BE
:1036C000E091B901E03011F40E94B3290E94A52ACB
:1036D0000E94B22AE091CC01F0E0E093EE02F09378
:1036E000EF02A3EFB2E0E091CD010E94AE2AA8EF75
:1036F000B2E0E091D1010E94AE2AADEFB2E0E091DC
:10370000D0010E94AE2AA2E0B3E0E091CF010E9476
:10371000AE2AA7E0B3E0E09190010E94AE2A00E05B
:103720000430F8F40E940E2CE12F1F5FA5E0EA9F01
:10373000F0010E94152CE05AFE4F0E94E62BED93FB
:10374000FC93A5E01A9FF0010E94152CEE59FE4F44
:10375000E081F0E0E7FDFFEFDB01ED93FC930F5F0D
:10376000DFCFE1C1E091BD01E03011F40C94291CE0
:103770000E941C2CA091CC010E94212C39F4A09114
:10378000CD010E94252C0E94212C29F1E091EE020E
:10379000E093CC01E091F302E093CD01E0E0E0930F
:1037A000CE010E94740BE6E3F2E10E942A2C0E94F3
:1037B000252C0E94042A0E94092AE4E5F2E10E94D5
:1037C0002E2C0E94352C0E94042A0E943A2C0E9422
:1037D000042A0E948529A091D101E091F802F0917C
:1037E000F9020E94212C71F4A091D0010E94352C85
:1037F0000E94212C39F4A091CF010E943A2C0E9402
:10380000212C31F1E091F802E093D101E091FD0229
:10381000E093D001E0910203E093CF010E94740B8A
:10382000ECE6F2E10E942E2C0E94352C0E94042A24
:103830000E943A2C0E94042A0E948529EBE8F2E1BA
:103840000E942A2C0E94252C0E94042A0E94092AE8
:1038500053C100E00430D0F50E940E2CA3E00A9F73
:10386000F001E05AFE4F608171810E943F2CDF0120
:103870000E940030E617F70771F0A3E00A9FF001FD
:10388000E05AFE4FBF010E943F2C0E94E62BED93B1
:10389000FC93689420F81F5FA3E00A9FF001EE59A3
:1038A000FE4F60810E943F2CE081E61769F0A3E0A3
:1038B0000A9FF001EE59FE4FBF010E943F2CE081AC
:1038C000DB01EC93689420F80F5FC4CFA0917E01D8
:1038D000B0917F01E0911103F0911203EA17FB0709
:1038E00031F0E0937E01F0937F01689420F8A0917D
:1038F0007C01B0917D01E0911603F0911703EA1766
:10390000FB0751F0E0911603F0911703E0937C015F
:10391000F0937D01689420F8A0917A01B0917B0129
:10392000E0911B03F0911C03EA17FB0751F0E091B3
:103930001B03F0911C03E0937A01F0937B016894E0
:1039400020F8A0918001B0918101E0912003F091D5
:103950002103EA17FB0751F0E0912003F0912103C6
:10396000E0938001F0938101689420F8A0917601A2
:10397000B0917701E0912503F0912603EA17FB0748
:1039800051F0E0912503F0912603E0937601F09346
:103990007701689420F8A0917801B0917901E091C5
:1039A0002A03F0912B03EA17FB0751F0E0912A0359
:1039B000F0912B03E0937801F0937901689420F85B
:1039C000A0917001B0917101E0912F03F09130034B
:1039D000EA17FB0751F0E0912F03F0913003E093D9
:1039E0007001F0937101689420F8A0917201B09178
:1039F0007301E0913403F0913503EA17FB0751F0AE
:103A0000E0913403F0913503E0937201F093730178
:103A1000689420F8A0917401B0917501E091390388
:103A2000F0913A03EA17FB0751F0E0913903F09166
:103A30003A03E0937401F0937501689420F8A09123
:103A40008201B09183010E94002BEA17FB0741F02D
:103A50000E94002BE0938201F0938301689420F888
:103A6000E091B901E03091F4A0916D010E940E2B1C
:103A70000E94212C59F00E94472A14F40E944F2AD8
:103A8000E0917F02E0936D01689420F8A091BB0162
:103A9000E0918902F0918A020E94212C21F0E091AC
:103AA0008902E093BB01A091B901E0913902F09144
:103AB0003A020E94212C29F0E0913902EC5FE09358
:103AC000BA0100E00C30C0F40E94702B19F00E9483
:103AD000452C09F00FC00A93A7D6E0EAF2E1FA9369
:103AE000EA930A930E94802A0E94AB29EFEBF2E14D
:103AF0000E9426290F5FE6CFA0919001E091070375
:103B0000F09108030E94212C71F0E0910703E093EB
:103B10009001689420F8E0910703F0910803E09386
:103B20003E02F0933F021981088128C30E94403170
:103B3000EE81F0E06C817D810E944F2CE60FF71F33
:103B40009F01D9010D911C913A932A93E0E0EA93E9
:103B50001A930A9304D00E94473127960895249718
:103B6000EDE3E883EEE3E983E0E2EA83E0E0EB8380
:103B70000E944131A885AA2312F4EDE201C0EBE2D4
:103B80002E2FE985E03019F0FE01339605C0EA8555
:103B9000FB85A481AA93CFD48F01AA85BB851296F9
:103BA000EC91E03039F40E94892B0E94542C0E9441
:103BB0005A2C6AC1E130A9F4EF81F885309729F0D9
:103BC0000E94892BE3EEF2E104C00E94892BEAEE09
:103BD000F2E1FA93EA93F8010E945D2B0E945A2CBD
:103BE00053C1E43079F40E94892BE2EFF2E10E94A4
:103BF0005F2CAF85B889E4E6F0E00E94322B0E948A
:103C0000632C42C1E93059F40E94892BE9EFF2E1BB
:103C10000E945F2C0E94682C0E94632C35C1EA3000
:103C200059F40E94892BEEEFF2E10E945F2C0E9472
:103C3000682C0E94632C28C1E330D1F5A9E3B2E0DF
:103C4000E091B9010E94AE2AEF81F885309749F4DE
:103C50000E94892BE3E0F3E10E945F2C0E945A2C22
:103C600026C0E130A0E0FA0749F40E94892BEAE07F
:103C7000F3E10E945F2C0E945A2C19C0E230A0E0B0
:103C8000FA0749F40E94892BE4E1F3E10E945F2CDA
:103C90000E945A2C0CC0E330A0E0FA0741F40E94C5
:103CA000892BEEE1F3E10E945F2C0E945A2CECC0BC
:103CB000E831B1F4E985E03029F00E94892BE9EF81
:103CC000F2E104C00E94892BE5E2F3E1FA93EA9362
:103CD000F8010E945D2B0E94682C0E94632CD4C0C6
:103CE000E631C1F4EF81F885309759F00E94892BB5
:103CF000EBE2F3E10E945F2C0E94682C0E94632C8F
:103D000008C00E94892BE1E3F3E10E945F2C0E942E
:103D10005A2CBAC0E731B1F4EF81F885309759F0E9
:103D20000E94892BEBE2F3E10E945F2C0E94682C39
:103D30000E94632C06C00E94892B0E94542C0E9472
:103D40005A2CA2C0E230A9F4EF81F885309729F00F
:103D50000E94892BE7E3F3E104C00E94892BEEE384
:103D6000F3E1FA93EA93F8010E945D2B0E945A2C2A
:103D70008BC0E33189F40E94892BE5E4F3E10E94D2
:103D80005F2CE091CC010E941D2A0E944A2B8CE0FE
:103D90000E94AD28609678C0E43189F40E94892B96
:103DA000E1E5F3E10E945F2C0E948E2B0E94912B93
:103DB000E091CF010E941D2A0E949F2B65C0E23135
:103DC00049F40E94892BE2E6F3E10E945F2C0E94F5
:103DD0005A2C5AC0EB3059F40E94892BEEE6F3E1DD
:103DE0000E945F2C0E94682C0E94632C4DC0E5301D
:103DF00011F0E63009F402C0E73009F402C0E830FF
:103E0000F1F40E94892BE5E7F3E10E945F2CE22F99
:103E10000E941D2AEB89FC890E94C029DF01E4E68B
:103E2000F0E00E949C2BAF89B88D0E94582BDF01D7
:103E3000EAE0F0E00E949C2B0E949F2B25C0EE3010
:103E400011F0ED3009F402C0EF3009F402C0E031A6
:103E500059F40E94892BE9EFF2E10E945F2C0E9445
:103E6000682C0E94632C10C0E13159F40E94892B08
:103E7000E3E8F3E10E945F2C0E94682C0E94632C0F
:103E800003C0E0E0E0932002E0E2F2E00E9448316B
:103E90002C960895E0E0E093CA02E1E0E093CB02C3
:103EA000E981FA81E093CD02F093CE02E881E093BC
:103EB000CF02E0E0E093CC0261C1AA81BB810A2E6F
:103EC000EC91A881EA0FA02DEC93AA81BB81AC9163
:103ED000E9810E94B02BAE17BF0724F0AA81BB81F5
:103EE000E0E0EC93AA81BB81AC91A0304CF4E98175
:103EF000E150AA81BB81EC931196E0E0EC9319C0EC
:103F0000AA81BB81EC91EF5FAE2FE9810E94B02BBB
:103F1000EA17FB0731F4AA81BB811196E0E0EC932C
:103F200008C0AA81BB81EC91EF5FAA81BB81119689
:103F3000EC9324960895A091CC02A03019F4A881A6
:103F4000A1300CF404C0E1E0E093CC0219C0A091D0
:103F5000CC02A13019F4A881A0300CF004C0E0E03C
:103F6000E093CC020DC0E881E03051F0EAECF2E0E1
:103F7000FA93EA93E091CF02EA93EB81EA939DDF13
:103F80000E94842BE091CA020E946B2C0E94712C2B
:103F9000E091CA020E94D52B0E944F2C0E94782CDF
:103FA0000E9446290E94C50CE091CB020E946B2C16
:103FB0000E94712CE091CB020E94D52B0E944F2CC5
:103FC0000E94782CE091CC02E03021F0EFE0EA93FF
:103FD000E1E003C0EFE0EA93E0E0EA930E94C50C61
:103FE000EFE0EA930E94BE0C219608950E94802C77
:103FF00019F02091CB0202C02091CA02A091D402F4
:10400000A03011F4233008F441C00E94AF29E22F00
:10401000E33099F4EAECF2E0A3EEB2E08BE00E9428
:104020000D30EEEEF2E0FA93EA930E946929E1E0A6
:10403000E093D402E093BD0125C0E43041F4E7E50C
:10404000F2E0FA93EA93EBE00E94862C1BC0E53085
:1040500061F4E0915002E03039F0EEE8F2E0FA93DA
:10406000EA93ECE00E94862C0DC0E63059F4E09112
:104070005502E03039F0E1E1F3E0FA93EA93E1E14F
:104080000E94862CE1E0E093B80173C00E948D2C61
:104090000E944F2CE60FF71F8F01D8011396EC9169
:1040A000E03009F466C0D8011396EC91A091B801F4
:1040B000EA0FE093B8010E94932CD8010E940030CF
:1040C0000E94982CE0E0EA935BD056C00E94802CBE
:1040D00019F02091CB0202C02091CA020E948D2CBF
:1040E0000E944F2CE60FF71F8F010E94932C0E9415
:1040F0009D2CD801ED93FC93E0E0EA9394DAE091F3
:10410000BD01E03021F00E94A22C0E94AA2C20FECA
:1041100006C00E949D290E94B02CE89420F829C076
:104120000E94802C19F02091CB0202C02091CA027B
:104130000E948D2C0E944F2CE60FF71F8F01E091FB
:10414000D402E03021F4E091BD01E03071F0E09163
:10415000BD01E03019F00E94A22C04C00E94642925
:104160000E9469290E94AA2C07C00E94932C0E94D9
:10417000B42CE0E0EA93DFDE0E94483123960895F4
:104180001A930A930091D0021091D102D80112968D
:10419000EC91E03009F4A8C1E13011F0E23089F48B
:1041A000EA81E03069F00E949D2C309719F0E0E040
:1041B000F0E002C0E1E0F0E0E093D202F093D3023D
:1041C00093C1E33089F4EA81E03069F00E949D2CCC
:1041D000309719F0E0E0F0E002C0E3E0F0E0E093B7
:1041E000D202F093D30280C1E530B9F40E94B72C1B
:1041F0000E94C22CA131E7E2BE0724F0E8E4F4EF0C
:104200000E94982C0E94C22CA834E4EFBE0724F42C
:10421000E0E1F7E20E94982C67C1E630B9F40E9411
:10422000B72C0E94C22CA93BEBE0BE0724F0E4EFC0
:10423000F1E00E94982C0E94C22CA43FE1E0BE074E
:1042400024F4E8EBFBE00E94982C4EC1E730C9F45F
:104250000E94C72C0E94CC2C0E94C22CA93BEBE0F0
:10426000BE0724F0E8E4F4EF0E94982C0E94C22CD0
:10427000A834E4EFBE0724F4E8EBFBE00E94982C9E
:1042800033C1E830C9F40E94C72C0E94CC2C0E9494
:10429000C22CA131E7E2BE0724F0E4EFF1E00E9476
:1042A000982C0E94C22CA43FE1E0BE0724F4E0E178
:1042B000F7E20E94982C18C1E430A9F40E94C22CA5
:1042C0000E94CF2C0E94C22CA030E1E0BE0714F067
:1042D0000E94B42CA091D302AA2322F4EFEFF0E0C5
:1042E0000E94982C01C1E930A9F40E94C22C0E94BE
:1042F000CF2CA091D302AA2322F4EFEFF0E00E948A
:10430000982C0E94C22CA030E1E0BE0714F00E945D
:10431000B42CEAC0EA30C9F40E94C22C0E94CF2C0F
:104320000E94C22CA038EFEFBE0724F4EFE7F0E0C4
:104330000E94982C0E94C22CA038E0E0BE0724F016
:10434000E0E8FFEF0E94982CCFC0EB3089F50E9487
:10435000C22CA436E0E0BE073CF40E94C22CEA81E5
:10436000F0E0E7FDFFEF0FC00E94C22CA83EE3E0A3
:10437000BE071CF4EA81AAE002C0EA81A4E6EA02D0
:10438000F0010E94C22CEA0FFB1F0E94982CA09102
:10439000D302AA2322F4E0E1FEE00E94982C0E94BE
:1043A000C22CA131EEE0BE0714F00E94B42C9CC0D8
:1043B000ED3099F40E94C22C0E94CF2CA091D30220
:1043C000AA2322F4EBE3F0E00E94982C0E94C22C76
:1043D000DC9714F00E94B42C87C0EE3099F40E9450
:1043E000C22C0E94CF2CA091D302AA2322F4E7E191
:1043F000F0E00E94982C0E94C22C589714F00E9462
:10440000B42C72C0EF30A9F40E94C22C0E94CF2CB1
:104410000E94C22C119724F4EFE1F0E00E94982C46
:104420000E94C22C909724F0E1E0F0E00E94982CCA
:104430005BC0E031A9F40E94C22C0E94CF2C0E94E4
:10444000C22C119724F4ECE0F0E00E94982C0E941A
:10445000C22C1D9724F0E1E0F0E00E94982C44C0AB
:10446000E131B9F40E94C22C0E94CF2C0E94C22CD0
:104470001B9724F4E3E6F0E00E94982C0E94C22CE3
:10448000A436E0E0BE0724F0EBE0F0E00E94982CB8
:104490002BC0E73131F4EA81E03011F00E94B42CF6
:1044A00023C0E831E9F40E94C22C0E94CF2C0E9464
:1044B000C22CE4E1F0E00E944F2FE0935502A0915E
:1044C000D302AA2322F4E3E6F0E00E94982C0E9493
:1044D000C22CA436E0E0BE0714F00E94B42C04C045
:1044E0000E94C22C0E94CF2C0E94842B1A930A9304
:1044F000E0E0EA93D8010E94D42C31DB0E947B2AB1
:104500000E94140D0E9446290E94C50C1A930A931A
:10451000E1E0EA930E949D2CFA93EA9320DB0E944B
:104520007B2A0E94140DEFE0EA930E94BE0C1981D1
:1045300008810C944F27E881E03009F1A881AD3360
:1045400080F4E6E6F3E0FA93EA93EA81E150F0E0E2
:104550000E942D2FEC5AFF4FFA93EA930E94E32812
:104560000AC0E6E6F3E0FA93EA93EA81ED530E948B
:10457000752A0E94D828E6E6F3E00C945527E0E07F
:10458000F0E00C9455270E94D82DE881E03011F01E
:10459000E2EA01C0E0EAEA930E940C2EEA810E945E
:1045A000D92C0E940C2E0E94E72DEAE0F0E00E9438
:1045B0006029E1E00C944F270A930E94D82DE981ED
:1045C000E03011F0E2EA01C0E0EAEA930E940C2E2A
:1045D000EA810E94DF2CE981E03011F0E3EA01C0BA
:1045E000E1EAEA930E940C2E0E94E42C0E2F0E9416
:1045F000E72DE02F08810C944F271A930A93E2ECE1
:10460000F3E10E94A42B0E945B29E8EEF3E10E94F3
:10461000262900E0EA810E1780F4AB81BC811C9151
:10462000E02FEA931A93E0E0EA93ADDFEB81FC819F
:104630003196EB83FC830F5FEDCF4AC00E94E82CDC
:10464000EBEEF3E1FA93EA93ED810E941D2AEA85ED
:104650000E941D2AE22F0E941D2A0E94852900E047
:10466000EC810E1788F4AD81BE811C91E22FE00F22
:10467000EA931A93E1E0EA9386DFED81FE813196B9
:10468000ED83FE830F5FECCF0E9448310C947B27B3
:104690001A930A93E2E2F4E10E94A42B0E945B29A0
:1046A000E8EEF3E10E94262900E0EA810E1780F48B
:1046B000E02FEA93E0E0EA937FDF1E2FAB81BC811D
:1046C0001C93EB81FC813196EB83FC830F5FEDCF74
:1046D00019810881259608950E94E82C00E0EC815C
:1046E0000E1788F4E22FE00FEA93E1E0EA9364DF2B
:1046F0001E2FAD81BE811C93ED81FE813196ED832D
:10470000FE830F5FECCF0E9448310C947B270A9305
:10471000EDE4F2E00E94F12C00E00C3008F5A5E099
:104720000A9FF001EF56FD4F0F01A4E8B1E0EE271C
:10473000A00FBE1FEC91D001EC930E94702B71F082
:10474000ADE4B2E00E94F62C0E94452C39F4A5E0BD
:104750000A9FF001E257FD4F0E94FD2C0F5FDDCF55
:10476000E0914D02E09350020C9447260E94022DE6
:10477000E0E4F4E10E94452B0E944A2B0E948E2B1C
:104780000E94912B0E949F2BE6E8F3E0FA93EA93B4
:10479000E4E5F4E1FA93EA93ED81FE810E945D2B5A
:1047A0000E945A2CED81FE81E0938203F0938303F3
:1047B000EB81FC81E0938403F09385030E94072D35
:1047C000E1E0EC93E881A5E0EA9FF001E257FD4FBC
:1047D000AB81BC81A083B183A0919201A83030F459
:1047E000E0919201EF5FE0939201E150E09191013D
:1047F000EF5FE0939101E150A0919101E09192016E
:10480000EA1718F4E1E0E09391010E94022DE0E242
:10481000EA93E0919101EA9311DF0E949D290E94A1
:10482000B02C75DF0C947B270E94072DEC91E030B3
:1048300019F4EFEF0C9455270E94072DE0E0EC935C
:104840000E949D290E94B02C62DFA881A73010F041
:10485000AB3008F002C00E94AB290C945527E881C8
:10486000E03019F4EFEF0C9455270E94022DE0E29E
:10487000EA93EB81EA9330DF0C945527E7E5F4E106
:10488000FA93EA93E6E7F3E00E945D2BE09182035E
:10489000F09183030E94042AE0918403F091850340
:1048A0000E94042AE6E8F3E00E945D2B0E94202B80
:1048B00008951A930A9310919101E7E6F4E10E949A
:1048C000262901E0093050F41A931A95C8DFD6DF83
:1048D000103011F4109192010F5FF4CF09911991EA
:1048E0000895A881AC3090F4E6E9F3E0FA93EA93F6
:1048F000EA81F0E00E942D2FEC50FD4FFA93EA93ED
:104900000E94E328E6E9F3E00C945527E0E0F0E0AC
:104910000C9455270E94413116EA23E0E6E7F4E1C2
:104920000E94262900E00C3078F4E9E8F4E1FA93DB
:10493000EA93A12FB22FEC910E941D2A0E945B29BD
:104940001F5F2F4F0F5FEFCFEDE8F4E10E942629A4
:104950000E944831A4C20E940E2D29F4D801E1E042
:10496000EC93D90117C0E33031F4D801E5E0EC93C2
:10497000D901E1E00FC0E43031F4D801E3E0EC9379
:10498000D901E1E007C0E13019F4D901E1E002C04A
:10499000D901E0E0EC93D901EC910E94473165C266
:1049A0000E940E2DB1F4D801EC91E03089F00E9404
:1049B0001D2D71F4D901EC91E03029F0E0E0EC9389
:1049C000D801E5E004C0D901E1E0EC93D801EC9313
:1049D00036C0E330B9F4D801EC91E03091F00E9498
:1049E0001D2D79F4D901EC91E03029F0E0E0EC9351
:1049F000D801E1E005C0D901E1E0EC93D801E5E0A0
:104A0000EC931DC0E43081F4D801EC91E03059F012
:104A10000E941D2D41F4D901EC910E94552FEC9379
:104A2000D801E3E0EC930BC0E13019F4D901E1E0E7
:104A300005C0D901E0E0EC93AC81BD81EC93D901D4
:104A4000EC910E94473111C2E091A603E23011F0CF
:104A5000E33091F4E0E0E093A803E091A703E030B5
:104A600051F00E94232D21F0E1E0E093A80303C060
:104A7000E0E0E093A60318C0E43089F4E091A703D6
:104A8000E03061F00E94232D49F4E091A8030E94D8
:104A9000552FE093A803E3E0E093A70305C0E0E00F
:104AA000E093A803E093A603E091BE01E03039F063
:104AB000E091A803E03011F4969801C0969AE9EAD3
:104AC000F3E00E942D2D11F4DB9801C0DB9AECEA93
:104AD000F3E00E942D2D11F4C49801C0C49AEFEAAE
:104AE000F3E00E942D2D11F4DA9801C0DA9A0895AE
:104AF000E881E093A603E23031F4E1E0E093A7031C
:104B0000E093A80313C0E33029F4E1E0E093A803A5
:104B1000E5E00AC0E43029F4E1E0E093A803E3E033
:104B200003C0E0E0E093A803E093A703E091BE0197
:104B3000E03039F0E091A803E03011F4969801C01C
:104B4000969A0C945527E881E093A903E9EAF3E0EB
:104B50000E94332D11F4DB9801C0DB9A0C94552789
:104B6000E881E093AC03ECEAF3E00E94332D11F40A
:104B7000C49801C0C49A0C945527E881E093AF0310
:104B8000EFEAF3E00E94332D11F4DA9801C0DA9ACB
:104B90000C945527A881A43020F50E94392DEF3FB1
:104BA00019F4E1E00C9455270E94392DE03069F4A6
:104BB0000E94412DE081E03029F40E942C2AE0E09F
:104BC0000C945527E1E00C9455270E94392DE130D3
:104BD00039F40E94412DA0E0A083E1E00C94552718
:104BE0000EC00E94392DEF3F31F4E8810E94462D1E
:104BF000E0810C9455270E94392D0C94552755C1FE
:104C00000A9300E00730D0F5EAE0E093D5020E9475
:104C10004C2D91F50A933DD00E944C2D81F0AAE0D5
:104C20000A9FF001ED54FC4F60810E94542DA62F85
:104C3000B0E0F0E0E7FDFFEFEA17FB0709F414C06E
:104C4000AAE00A9FF001ED54FC4FBF010E94542DD1
:104C5000DB01EC93AAE00A9FF0010E945B2DE0913A
:104C6000D502E03049F007C0AAE00A9FF001EC54F9
:104C7000FC4FA1E0A083CBCF0F5FC4CF08C00A9345
:104C800000E0073020F40A9304D00F5FFACF0991B7
:104C9000089522970A9300E00E94602DE654FC4F8D
:104CA000E081E983E0E0EA83A981BA816D917C919A
:104CB0000E94602DE554FC4FE081A1E00E941C2F72
:104CC000F0E06E237F230E94602DE554FC4FE081CD
:104CD000DB010E94242F0E2F0E94602DEE54FC4F0A
:104CE000E081E030D9F40130C1F40E94602D0E94CF
:104CF0005B2DEBB7EF73EBBF0E94602DEA54FC4FC6
:104D00000E94F12C0E94602DE854FC4F0E94FD2C63
:104D1000EB810E94462DA0E0A08358C0E130D9F479
:104D20000030C1F40E94602D0E945B2DEBB7EF7341
:104D3000EBBF0E94602DEA54FC4F0E94FD2C0E94A4
:104D4000602DE854FC4F0E94F12CEB810E94462D0F
:104D5000A1E0A0833BC0EF3FC9F5003029F40E94D9
:104D6000602DEA54FC4F04C00E94602DE854FC4FB3
:104D7000DF010E94F62C0E94602DEA54FC4F0E9435
:104D8000652D38F40E94602DE854FC4F0E94652D7B
:104D9000E8F00E94602DEE54FC4FCF010E94602D80
:104DA000EA54FC4F608171810E94602DE854FC4FF1
:104DB000DF010E940030E617F70710F4E0E001C0C1
:104DC000E1E0DC01EC93EBB7E06CEBBF08812496EB
:104DD0000895EA81E370EA83E981E03019F0EA811D
:104DE000E061EA83E881E03019F0EA81E068EA8373
:104DF0000E946C2DE7E00E94722D4CC00E946C2D29
:104E0000E0E00E94DF2C0E94772D0E94092C0E9476
:104E1000822DEA930E940329AC81BD8123C00E94A8
:104E20006C2DE0E0EA930E940C2EE881EA930E9448
:104E30000F290E94D92C0E940F290E94722D27C091
:104E40000E946C2DE4E00E94DF2C0E94772DAC8143
:104E5000BD81EC93E1E00E94822DEA930E94032938
:104E6000A881B981EC930E94E72D269608950E94AF
:104E70006C2DE4E00E94722DEA930E940F290E949B
:104E8000D92C0E940F29EA930E940C2EE881EA9304
:104E90000E940F29EA930E940C2E0E94E72D239670
:104EA00008955D9BFECFE881ECB9219608951A9391
:104EB0000A93AC81BD810E9400303097B9F0AA817D
:104EC000BB810E9400308F01309749F00230E0E052
:104ED0001E0758F0F80131978F01ED93FC93AC81D8
:104EE000BD810E94F62CAE81A08303C0EE81EA93BF
:104EF000D8DF198108812796089526970E943E31B0
:104F000000E0EA89FB893196EA8BFB8B3197E491CB
:104F10003E2FE03011F40C94A928E02FE03039F452
:104F2000353211F401E002C00E948C2D11C1E13034
:104F3000A9F4353219F40E948C2D09C102E050E029
:104F400010E03D3211F411E003C13B3211F45BE299
:104F5000FFC0303211F450E2FBC002C0E23039F43D
:104F600040E003E0303311F41068F2C004C0E330D5
:104F700011F00C94A828303310F03A3308F009C02F
:104F8000A42FEAE0EA9FF0014E2FE32FE0534E0FEB
:104F9000DFC0E32FE33649F40E94972DE889F989B1
:104FA000A481AA930E949D2DD2C0E33741F40E94B0
:104FB000972D0E94A72D0E94EE280E2F0AC0E037E1
:104FC00061F40E94972D0E94A72D0E94F8280E2FB1
:104FD000186012601F7720E035C0E43611F0E93622
:104FE00011F4146002C0E53731F4E4EBF3E0EE8332
:104FF000FF8305E00DC0E83511F4186004C0E83700
:1050000011F00C94A728EEEBF3E0EE83FF8304E0AD
:1050100012FF14C00E94972D0E94B12DAB85AA23C8
:105020003AF4EA85FB850E94102FEA87FB875DE250
:10503000503011F00F5F01C01B7F04C00E94972DFC
:105040000E94B12D10FD11C0041778F417FF08C09D
:1050500012FF04C01B7F352F015001C030E301C097
:1050600030E20E948C2D4150EFCF202F11FF1AC04B
:105070002030B9F013FF08C0EE81FF813196EE8336
:10508000FF833197E49105C0AE81BF81ED91AE837E
:10509000BF83EA930E949D2D403009F0415021507A
:1050A000E7CF4BC030E3EE81FF810E940430E887F8
:1050B000F987EE81FF813296EE83FF83E885F985DB
:1050C000AA85BB85AE17BF0750F03F5FA885B9859D
:1050D000EA85FB85EA1BFB0BEA87FB87EFCF3A33B8
:1050E00028F013FF02C0395F01C0395D14FD1AC0FA
:1050F000313320F4A885B985119709F409C0421706
:1051000010F010FF01C013C030E217FF0BC030E3F6
:10511000106112FF07C01B7F5A930E949D2D4030E3
:1051200009F041500E948C2D403009F0415021502F
:10513000A885B985129708F0B5CF10FF08C0403098
:1051400031F04150E0E2EA930E949D2DF8CF00E05B
:10515000D8CE0E94453164960895FF920E94B92DE1
:10516000DE0116960E94072F0E940030EA83FB831F
:105170000E94C22D0E94C72DAA81BB81E0E0EC9362
:105180000AC0FF920E94B92DE0E0EA83EB830E94FF
:10519000C22D0E94C72D198108812496FF90089581
:1051A000E991F99130971AF4E095F09531960895C8
:1051B000E991F991A991B991CD0161916D9366231E
:1051C000E1F7FC010895E991F991A991B991CD0117
:1051D00005900D920020E1F7FC010895A991B99185
:1051E000EE27FF276D91662311F03196FBCF0895CE
:1051F000AA27BB27E991F9910590002011F011969B
:10520000FBCFFD010895E881E295EF70AE2FAA0F64
:10521000AA0FEA0FEE0FA991AF70EA0F0895A991B6
:10522000EE27AA5012F0E05FFCCFA65FEA0F0895C8
:105230000A921A92FA926A937A938A939A93AA9309
:10524000BA93EA93FA93EFB7EA930895FA93EA933D
:1052500080E00E94C12822960895E1E0EA930C9430
:10526000B025E0E0E093B901E093BC010895E0E0EF
:10527000EA930C94B025E091D201F091D301089506
:10528000E8ECF0E0FA93EA930C94252EE0E0EA9340
:10529000E1E0EA930895E0EFEA93EBEFF1E0FA93AF
:1052A000EA930C94812EE0919301FF2766277727DC
:1052B0000E940830089584E00E94C128269608952F
:1052C000FA93EA930C94252EE4E3F2E0FA93EA933E
:1052D0000895E7E0EA930C944A1FE0E0EA930E9405
:1052E000A325E0E0EA930C947825E0E0EA930C949F
:1052F000BD25C69A86EE90E00197F1F708950E94C9
:105300003D0C8FE48A95F1F708958CE00E94C12846
:105310002E960895E3E0EA930E94CA25E0300895AE
:10532000E2E0EA930E94CA25E0300895E4E0E093C9
:1053300093010E94A118E8830895E0E6F1E0FA9352
:10534000EA930895FA93EA93EA81FF27662777277D
:105350000E940830B0CFE1E0EA930C947A19E1E0C2
:10536000EA930C94131BAFE7B2E0E0916D01F0E01B
:10537000ED93FC930895E0917E01F0917F010895F3
:10538000FA93EA930C94D028E0916102F0916202C2
:105390000E944A2F0895E43FA1E0FA07A0E06A07BF
:1053A000A0E07A070895A4EFB1E080E090E00E94C9
:1053B0000B2FE091BF01F091C0010E944A2F0E9483
:1053C000872FDF01CB01E8EEF3E060E070E00E94A0
:1053D000C92F6E2E0895A0917502B0917602E62D28
:1053E000F0E0AE17BF070895FA93EA93E0917F02C9
:1053F000F09180020E944A2F0E9408300895E091A7
:105400007502F091760208950E944A2F0E9408309A
:10541000089588E00E94C1282A960895F0E0E7FDEB
:10542000FFEFAECFEA930E94CA25E030089523DF54
:10543000662777270E9408300895FF276627772779
:105440000E9408300895E091B801EF5FE093B80141
:10545000E150EA930C949B1FE2E0EA930C947825C8
:10546000E091B801E150E093B8010C949020E1E0A4
:10547000EA930C94BD25E0917601F09177010895AF
:10548000E5E7F2E0AFEFB0E0A083B1830895A0912B
:105490007F02B0918002A736E0E0BE070895EFE7F3
:1054A000F2E0A6E6B0E0A083B1830895E0E0E093E7
:1054B000D201E093D3010895E3E0EA930C947825B8
:1054C000E2E0EA930C94B025E1E0EA930E94A32580
:1054D000E4E0EA930C947825E0E0F0E0FA93EA93B4
:1054E000E1E0F0E0FA93EA930895EA930E947124D0
:1054F000FA93EA930895FA93EA93E0E0EA93089521
:105500000E947124662777270E940830D4CEE2E3F8
:10551000F7E0FA93EA930895EA930E94B623D4CF72
:10552000E5E0F0E0FA93EA930895F0E0FA93EA9365
:105530000895EA930E94B623E3E0EA930E94A3252C
:10554000E4E0EA930E94782592CEE0918201F09106
:105550008301E0935702F09358020895F0E0ED9331
:10556000FC930895A9E8B2E0E091BB01F7CFE4E62F
:10557000F0E00E949F2F0895E0917C01F0917D0161
:1055800008959F01A0916B02B0916C020A171B074E
:105590000895A091DD02B091DE02EA0FFB1FE093B7
:1055A0007502F09376020895A5E7B2E0E62DD6CF16
:1055B000A0917502B0917602A030E1E0BE07089597
:1055C000A0916B02B0916C020895FA93EA93E09176
:1055D000DD02F091DE0218CFE0917002F0917102CD
:1055E00013CFEAE0F0E00E949F2F0ECF84E10E94EB
:1055F000C12866960895E0915C02F0915D020895DD
:10560000E0915702F09158020895E091D901EF5FBF
:10561000E093D901A091D901A5300895E0917F02CE
:10562000F09180020895E0937F02F0938002E0E021
:10563000E093D9010895E0917A02F0917B02E4CEE3
:1056400080E10E94C12862960895A0917F02B091E6
:105650008002E0916D01F0E00895E0917001F09119
:10566000710108950E94822FDF01EFEFF0E00E94A8
:105670009F2FCACEA091E102B091E2020895E88581
:10568000F985F8DFEA17FB070895FA93EA93E091AA
:10569000CC01D3CEE091CD01D0CEE091CE01CDCEE4
:1056A000A9E02A9FF001E550FE4FFA93EA9308958E
:1056B000E4E6F0E00E94D12F63CE662777270E94B0
:1056C000083008950E94442F0E9408300895E9EFA1
:1056D000F4E0BCCDA6E0EA9FF001ED51FE4F089545
:1056E000A4E8B1E0EE27A00FBE1FEC91E0300895D2
:1056F000FE013596FA93EA930895FA93EA9380E0CF
:105700000E94AD2824960895E0E0EA93EA930C9471
:10571000C50CE0E2F2E0FA93EA930895E091D1013A
:105720008CCEE091D00189CE4A933A930E94D02842
:10573000DF01E4E6F0E008950E948C2FBECF80E107
:105740000E94AD2864960895FA93EA93EC8175CE91
:10575000A9E00A9FF001E550FE4FFA93EA930895FD
:10576000B0E0A7FDBFEFF0E00895FA93EA93E98572
:1057700064CEEA930E94721AE0300895E981A9E0AC
:10578000EA9FF001E550FE4FFA93EA930895FA93E9
:10579000EA930C94961DEA93E1E0EA930C9439178E
:1057A000EA93EBEBEA930C943917F0E0BD0108950E
:1057B000E981A6E0EA9FF001E851FE4F0895E981F2
:1057C000A6E0EA9FF001EA51FE4F0895DF010E9432
:1057D0000030DB010895EA930E94772E00E00895DF
:1057E000FA93EA930C94AB19FA93EA930E94CD19B9
:1057F000E0300895EA81FB81FA93EA930895EA8103
:10580000FB81F2CFE8E4EA930E94772EEFE0F0E02C
:1058100057CDA881B981EC93E1E00895E02FA2E093
:10582000EA9FF001E75F1E2F0895EF5EFC4FBF0176
:10583000A3E00A9FF0010895E091EE02F091EF02DB
:105840000895B0E0EA17FB070895E091F302F091A4
:10585000F4020895FA93EA93EFDFD6CDFA93EA9330
:10586000E091F802F091F902CFCDE091FD02F091C4
:10587000FE020895E0910203F09103030895A5E06C
:105880001A9FF001EF5EFC4F0895A5E00A9FF0011A
:10589000E257FD4FDF010E94003030970895A5E0E8
:1058A000B0E00E945A2F0895E0EEF2E1FA93EA93F5
:1058B000F80103CF84E00E94AD2828960895FA935A
:1058C000EA93F801FACE88E00E94AD282C9608955C
:1058D000EF85F88999CDEA93E091CD02F091CE025F
:1058E00056CFFA93EA93A091CD02B091CE020895DB
:1058F000DB01AE0FBF1F1396EC91EA930C94140DCD
:105900000E944131E091CC02E0300895EA930E9478
:105910004A1FE1E0E093D4020895A091CD02B09136
:10592000CE02E22F42CF0093D0021093D10208950D
:10593000E093D202F093D3020895E091D202F09165
:10594000D3020895E3EEF2E0AAECB2E08BE00E940D
:105950000D300895E0E0E093D402E093BD01089596
:10596000E8E5EA930C94FD22E0E0F0E0E1CFEA8183
:10597000AAE0EA02F001A091D202B091D302EA0FAC
:10598000FB1FD6CFA091D202B091D3020895EA8135
:10599000A4E6EA02F001F6CFEA0FFB1FC9CFEA81C5
:1059A000F0E0E7FDFFEFF8CF0E940030FA93EA93B2
:1059B0000895EA930E940C2EE981EA930895EA93F0
:1059C0000E940C2E0C94D82DE0E0EA930C94F12D5B
:1059D0000E944131EB81E150AC81EA9FF0012E2F12
:1059E0000895A0E0B0E0A083B1830895ED91FD910A
:1059F0003196FE93EE9331970895A1E0B0E0A08335
:105A0000B1830895E6E7F3E0FA93EA930895A4E8F2
:105A1000B1E0E881F0E0AE0FBF1F08950E94403171
:105A2000EC81FD8131968F01EC81FD8132969F01E1
:105A3000AC81BD81EC91E2300895D801EC91E15048
:105A4000EC93E0300895E091A703E150E093A703C1
:105A5000EF5FE091A703E0300895FA93EA930E9484
:105A6000D024E0300895FA93EA930E94AB24E0300A
:105A70000895E881AAE0EA9FF001EE54FC4FE0812E
:105A80000895E881F0E0EA52FD4F0895AAE0EA9F08
:105A9000F001ED54FC4F0895AAE00A9FF001EE5486
:105AA000FC4FE081EF3F0895AAE00A9FF001EE5419
:105AB000FC4FE0810895EE54FC4FAFEFA0830895B2
:105AC000EB81AAE0EA9FF0010895DF010E94003017
:105AD000E436A0E0FA0708950E94D82DE0EDEA939D
