:107C00000C94333E0C94003E0C94003E0C94003EC9
:107C10000C94003E0C94003E0C94003E0C94003EEC
:107C20000C94003E0C94003E0C94003E0C94003EDC
:107C30000C94003E0C94003E0C94003E0C94003ECC
:107C40000C94003E0C94003E0C94003E0C94003EBC
:107C50000C94003E1027E80364000A0001000010A5
:107C6000000110000100F894EE27ECBBF1E0FBBF2F
:107C7000F2E0FBBFE5BFF8E1F1BDE1BD8DE0A2E0C0
:107C8000BB27ED938A95E9F780E098E0A0E6ED93B5
:107C90000197E9F7EFE5EDBFE8E0EEBFC0E6D2E01F
:107CA0000C94343F1A930A9310E000E0DD24EE2494
:107CB000E0E8F0E0DE16EF06D8F4ED2DFE2DEC59ED
:107CC000FD4FFF93EF930E946B3FAF91BF91EC93F9
:107CD000012E1124A4E6B2E0AD0DBE1DEC91F0E042
:107CE000D001EA0F1E2FE1E0F0E0DE0EEF1EE0CF44
:107CF0000E946B3F0E2F011711F4E1E001C0E0E09C
:107D0000099119910895DD24EE24E0E8F0E0DE16F3
:107D1000EF0600F5ED2DFE2DE40DF51D3F01F301FD
:107D200025903490A4E6B2E0AD0DBE1DAC91BB270A
:107D3000ED2DFE2D0E94753FE0936202F0936302E9
:107D4000E215F30511F0E0E00895E2E0F0E0DE0E68
:107D5000EF1EDBCFE1E00895E1E0E5BFE0E0E5BF45
:107D60000C9400000895E5E4EA930E946F3FEEE66C
:107D7000EA930E946F3FE3E6EA930E946F3FE3E5D8
:107D8000EA930E946F3FE2E3EA930E946F3FE1E2D1
:107D9000EA930E946F3F0E946B3FFE2FE0E02F01AD
:107DA0000E946B3FF0E04E0E5F1EEFEFFFEFE41519
:107DB000F50509F4D1DFD201E7E00E947C3F2F01F5
:107DC00071DFE03011F40C94303FBB24CC24E0E8A8
:107DD000F0E0BE16CF0600F5A4E6B2E0AB0DBC1D88
:107DE000AC91BB27EB2DFC2D0E94753F1F01E7B71F
:107DF000E0FDFDCFEB2DFC2DE40DF51D3F01E1E095
:107E0000AE2EF301132C022CA0925700E895E2E06D
:107E1000F0E0BE0ECF1EDBCFE7B7E0FDFDCFE3E025
:107E2000AE2EF201A0925700E895E7B7E0FDFDCF36
:107E3000E5E0AE2EF201A0925700E895E7B7E0FD2D
:107E4000FDCFE1E1AE2EA0925700E8950E94833E5F
:107E5000E03011F0E1E201C0E0E4EA9340D003C079
:107E6000E0E4EA933CD097CFE0E0EBB9E8E1EAB98F
:107E7000E6E8E0BDE1E0F0E0E0936002F09361024B
:107E8000E0916102F070E0BDE0916002F09161026A
:107E9000E9B9EEE3EA9323D0EBB1E0780E948B3F9F
:107EA0000E2EAB2DBC2DE0E0FDE70E94853FE021CA
:107EB00029F0E1E0F0E0BE0ECF1EEECFE0E0FDE7FE
:107EC000BE16CF0610F407D08E2EECE3E81509F4A9
:107ED0004ADF42DFFFCF5F9BFECFECB108955D9B91
:107EE000FECFE881ECB921960895EB59FD4FF08162
:107EF000E0E0EA0FFB1F0895EE230E2EFD0121F0B6
:107F0000EE0FFF1F0A94E1F70895AE17BF07E1E0F7
:107F100008F0EE270895EE23E1E009F0EE2708953A
:00000001FF
