:0C7C00000C94393E0C94003E0C94003EA5
:107C0C000C94003E0C94003E0C94003E0C94003EF0
:107C1C000C94003E0C94003E0C94003E0C94003EE0
:107C2C000C94003E0C94003E0C946A3E0C94003E66
:107C3C000C949C3E0C94003E0C94003E0C94003E24
:107C4C000C94003E0C94003E1027E80364000A00DC
:107C5C000100001000011000010011D37B4304004F
:107C6C00A002667C0000F894EE27ECBBF1E0FBBFB1
:107C7C00F2E0FBBFE5BFF8E1F1BDE1BD8DE0A2E0B4
:107C8C00BB27ED938A95E9F780E098E0A0E6ED93A9
:107C9C000197E9F7EAE6FCE785919591009761F089
:107CAC00A591B59105901590BF01F00105900D922D
:107CBC000197E1F7FB01F0CFEFE5EDBFE8E0EEBF98
:107CCC00C0E6D2E00C94CD3EEA93FA93EFB7EA9378
:107CDC001A930A931BB10CB1E12FEC7189F4E52DC9
:107CEC00F0E0E05AFD4F00835394E0E2E51509F40F
:107CFC0055247394E0E2E71519F47724689420F87E
:107D0C000991199125C01A937720F1F3E42DF0E035
:107D1C00E05AFD4F10814394E0E2E41509F4442449
:107D2C00F8947A947894E12F19910895EA93FA9340
:107D3C00EFB7EA93882061F08A94E92DF0E0E058DF
:107D4C00FD4FE081ECB99394E0E2E91509F4992434
:107D5C00E991EFBFF991E9911895E0E2E815E9F3A3
:107D6C00F894882011F45D990DC0E62DF0E0E058F0
:107D7C00FD4FA881A0836394E0E2E61509F4662424
:107D8C00839402C0E881ECB97894219608953EE280
:107D9C00E0E0EBBBECEFEABBE0E0E8BBE7BBE5BB4C
:107DAC00E4BBE2BBE0E2E1BBE0E0E3BFE2BFEFBD7E
:107DBC00EEBDEDBDECBDE7BDE6BDEBBDEABDE9BD7D
:107DCC00E8BDE2BDE5BDE4BDE3BDE5BFE9BFEBB990
:107DDC00E6E8E0BDE8E1EAB901E010E009B9E12F1D
:107DEC00F070E0BDE0E8E8B9E0E0E0BF7894E0E0F6
:107DFC00E71538F588DFBE2E0E943B3FE8E00E9475
:107E0C00553FDF01CB01EB2DFF27662777270E941B
:107E1C00503FE093A402F093A5026093A6027093E6
:107E2C00A702E091A002F091A1026091A2027091D0
:107E3C00A3020E943B3F0E94613F11F40C94000E80
:107E4C00D6CFE4E6F0E0FA93EA930E94443FDA9B43
:107E5C0002C0DA9801C0DA9ADB9B02C0DB9801C041
:107E6C00DB9A3A937ADFC3CFFFCFA091A402B091F3
:107E7C00A5028091A6029091A7020895E991F9912B
:107E8C00309639F08AE993E00197F1F7A89531978C
:107E9C00C9F70895EA2BFB2B682B792B0895EE2359
:107EAC000E2EFD01BC0131F0EE0FFF1F661F771F78
:107EBC000A94D1F70895EA17FB0768077907089524
:00000001FF
